:020000040800F2
:1000000000500020A18200089D8200089D82000807
:100010009D8200089D8200089D820008000000006B
:100020000000000000000000000000009D820008A9
:100030009D820008000000009D8200089D8200084B
:100040009D8200089D8200089D8200089D82000814
:100050009D8200089D8200089D8200089D82000804
:100060009D820008093F00089D8200089D820008CB
:100070009D8200089D8200089D8200089D820008E4
:100080009D8200089D8200089D8200089D820008D4
:100090009D8200089D8200089D820008293F00087B
:1000A0009D8200089D8200089D8200089D820008B4
:1000B0009D8200089D8200089D8200089D820008A4
:1000C0009D8200089D8200089D8200089D82000894
:1000D0009D82000865690008116C00089D82000877
:1000E0009D8200089D8200089D820008000000009B
:1000F0000000000000000000000000000000000000
:1001000000000000000000005FF808F10348044B05
:10011000834202D0034B03B118477047D000002040
:10012000D000002000000000054806490B1AD90F36
:1001300001EBA301491002D0034B03B118477047EC
:10014000D0000020D00000200000000010B5064CB8
:10015000237843B9FFF7DAFF044B13B10448AFF338
:1001600000800123237010BDD0000020000000009B
:10017000C8DB000808B5044B1BB104490448AFF3C1
:100180000080BDE80840CFE700000000D400002058
:10019000C8DB0008A3F5803A704700BF154B002B61
:1001A00008BF114B9D46FFF7F5FF00218B460F4618
:1001B0001148124A121A09F093F90C4B002B00D087
:1001C00098470B4B002B00D09847002000210400DB
:1001D0000D000B4809F0AAF809F0D8F82000290012
:1001E00004F048FB09F0A8F8000008000000000037
:1001F0000000000000000000D0000020981900203E
:100200006193000870B51F24104E114D31682846C7
:10021000E14011F0010118BF012103F0DDFF0C489E
:1002200004F0ADF801210A4803F0CEFF084804F0BD
:10023000A6F80021064803F0C7FF013CE6D20021E2
:10024000BDE87040024803F0C7BF00BF8C0100202A
:10025000BC09002010B5074C0121204603F0D0FF57
:10026000204604F08CF82046BDE81040002103F041
:10027000C7BF00BFBC09002010B5074C01212046B4
:1002800003F0C6FF204604F07AF82046BDE810408F
:10029000002103F0BDBF00BFBC09002010B504461B
:1002A000FFF7B0FF1CB1BDE81040FFF7D3BF10BD92
:1002B00010B50446FFF7A6FF1CB1BDE81040FFF7DC
:1002C000DBBF10BDF8B50446082540F2471626FAF4
:1002D00005F111F0010118BF0121204603F07CFF58
:1002E000204604F04CF80121204603F06DFF204623
:1002F00004F045F80021204603F066FF013DE6D2F8
:10030000274F0021204603F067FF3B78012120465C
:100310001BB9244B1B78602B3BD103F079FF20469F
:1003200004F02DF8112600250121204603F04CFF92
:10033000204604F024F83346112B06F1FF3606D090
:100340002BB1204603F050FFB0400543ADB2002171
:10035000204603F039FF204604F011F8731CE3D166
:10036000397819B90F4B1B78602B15D10021204625
:1003700003F04EFF05F07F03C5F3C315062D8EBFB6
:100380000020094A505D18444010C0F1820080B23C
:10039000F8BD03F035FFC2E7204603F031FFE9E77F
:1003A000200F00201C0F0020E8A6000801392DE9CD
:1003B000F0478246062900F2DE80DFE811F00700F0
:1003C0007B008B00AD00BC00DC00CC006D4B4FF01F
:1003D0000D081C886C4BDFF8B4911B686C4EB4FBA5
:1003E000F3F46C4FE40444F010046B4B6B4D1B684A
:1003F0002B60FFF707FFFFF73FFF2F60FFF702FFBC
:10040000FFF73AFF2E60FFF7FDFEFFF735FF644B65
:100410002B60FFF7F7FEFFF72FFF42F2F5432B604B
:10042000FFF7F0FEFFF728FF504603F093FF5D4B08
:100430001B682B60FFF7E6FEFFF71EFF5A4B1B7889
:100440005B0303F4FC231C4344F4C45444F002044F
:100450002C60FFF7D7FEFFF70FFF0E232B60FFF78F
:10046000D1FEFFF709FF514B2B60FFF7CBFEFFF7E3
:1004700003FFC5F80090FFF7C5FEFFF7FDFE3B2325
:100480002B60FFF7BFFEFFF7F7FE4FF486732B607C
:10049000FFF7B8FEFFF7F0FEC5F80080FFF7B2FEE9
:1004A000FFF7EAFE424B2B60FFF7ACFEBDE8F047DA
:1004B000FFF7E2BE3F4B40F29D381C88324BDFF81D
:1004C000F8901B683D4EB4FBF3F33D4C44EAC34443
:1004D0003C4F8AE790F834303A4F002B3A4B3B4E72
:1004E00008BF1F463A4B08BF4FF4012346EA0306F4
:1004F000384B18BF4FF418781C88234B08BF4FF4B3
:1005000096681B68DFF8B090B4FBF3F32C4C48F00E
:100510000D0844EAC34468E72F4B40F2FD281C88CD
:10052000194BDFF894901B682C4EB4FBF3F3244C6A
:1005300044EAC344CCE72A4B40F2AD181C88124B66
:10054000DFF874901B68274EB4FBF3F31C4C264F66
:1005500044EAC34449E7254B40F2BD381C880A4BA6
:10056000DFF854901B68224EB4FBF3F3144C164F83
:1005700044EAC34439E74FF00008C14646464746BF
:10058000444632E7A60100209C0100203A47960C21
:10059000942AA80093414C2A900100208C0100204D
:1005A000160E070594010020CC010020E93102005D
:1005B0000F000E00A40100202A479E043427068560
:1005C00070000020D3804C2A93C04C2A3403408111
:1005D00000240600B0010020AC010020342B66008E
:1005E000AA010020349F740013C14C2AA8010020E6
:1005F000343B798000232DE9F3418DF80730037AED
:100600000446002B48D003F02BFE474B05461A68E2
:10061000904241D0454E18603378002B3FD10028DE
:1006200071D1DFF80C8198F80030EBB1414F3B7885
:10063000D3B93378C3B1BDB920461A2103F098FE6F
:100640000121204603F0DCFD00BF00BF00BF2946AA
:10065000204603F0D5FD2946204603F0BDFD0123C9
:1006600088F8005035703B70236D334A01332365A1
:10067000136801331360B4F85430226C01339BB219
:10068000A4F8543044F61F639A4284BF00232364C5
:10069000236C0BB10133236402B0BDE8F081002864
:1006A000BFD1244F254A0DF1070104F1200000F0CD
:1006B000AFFC3B7883F001033B709DF8073003B338
:1006C0000121DFF87C80204603F0D6FD98F8003049
:1006D000002BA6D000BF00BF00BF0121204603F0C1
:1006E0008FFD00BF00BF00BF0021204603F088FD42
:1006F0000021204603F070FD002388F800303B7095
:100700008FE72946DDE70F4B1B78002B89D1204668
:1007100003F09AFD094B01468DF807001A7804F1A1
:100720000C0000F027FC7CE7040000202B0F0020C9
:10073000B201002008000020240F00201D0F00201F
:10074000B3010020200F00200A4B10B51B7804468F
:1007500043B103F065FD084B01461A7804F10C0023
:1007600000F008FCB4F8563001339BB2A4F85630C0
:1007700010BD00BF200F00201D0F002010B5044643
:10078000012103F0D7FD094B1A68094B1A60FFF7E6
:1007900039FD0121204603F001FD0122054B1A70AD
:1007A000204603F05DFD0028FAD110BD980100201D
:1007B0008C010020B301002038B50C46054600210D
:1007C00003F0B8FD094B20461A68094B1A60FFF781
:1007D00065FD0021284603F0E1FC34B90122054BF8
:1007E0001A701A780AB100BFFBE738BD94010020E7
:1007F0008C010020B20100202DE9F04F612905464F
:100800000C46DFF80493DFF8048385B004D0062992
:1008100000F01B82BE4B19706AB10021284603F01C
:100820000BFD284603F09EFD2846012103F004FD40
:10083000284603F097FDD9F800B0B64BB64A5B44A2
:100840009342DFF8D8A2B64B00F28280B54ACAF8CC
:1008500000200122D8F800001A601E68A0F5C330FD
:10086000A03808F033F8012EAF4B40F0838002220D
:100870001A60A1A3D3E9002308F0CCF908F05AFBD1
:10088000029007F0EDFD08F029FDC7B238462F7041
:1008900008F05AFC029B0146184608F09FFB4FF0F7
:1008A0008E4107F01DFE08F033F800229F4B07F041
:1008B000D1FE07F059FD08F01DFB80B268800001F1
:1008C0009B4B40EAC74747F0904758461F6007F0E8
:1008D000FDFF012E54D188A3D3E9002308F09AF933
:1008E00008F028FB834607F0BBFD08F0F7FCC7B211
:1008F00038462F7108F028FC0146584608F06EFB78
:100900004FF08E4107F0ECFD08F002F8874B002213
:1009100007F0A0FE07F028FD08F0ECFA80B2E880AE
:100920000001844B40EAC74747F08047072C1F600F
:100930002AD8002C00F07D81A31E052B00F2C9806F
:10094000DFE813F0D4002E014E015B013300690192
:10095000794A7A495A448A427FF678AF784A794987
:100960005A448A4201D3784A71E7784ACAF800208B
:1009700002226FE701221A6061A3D3E900237BE71B
:100980005FA3D3E90023A9E7612C40F05881704BA5
:100990001B78B3FBF6F640F29D376E4BDFF8B8B12B
:1009A00043EAC6466D4B6E4A0BE06E4B0D271B8823
:1009B000DFF8B4B1B3FBF6F66C4AF6046C4B46F0C4
:1009C0000056DAF80010DFF8ACA1CDE90223CAF82E
:1009D0000010FFF717FCFFF73DFC029ACAF8002051
:1009E000FFF710FCFFF736FC039BCAF80030FFF757
:1009F00009FCFFF72FFC604BCAF80030FFF702FC40
:100A0000FFF728FC42F2F543CAF80030FFF7FAFB83
:100A1000FFF720FC284603F09DFC01212846FFF744
:100A2000CBFE564B1B7846EA433646F4C45646F096
:100A30000206CAF80060FFF7E5FBFFF70BFC0E2388
:100A4000CAF80030FFF7DEFBFFF704FC4C4BCAF896
:100A50000030FFF7D7FBFFF7FDFBCAF800B0FFF748
:100A6000D1FBFFF7F7FB3B23CAF80030FFF7CAFBC7
:100A7000FFF7F0FB4FF48673CAF80030FFF7C2FBB4
:100A8000FFF7E8FBCAF80070FFF7BCFBFFF7E2FBDB
:100A90003C4BCAF80030FFF7B5FBFFF7DBFB062C39
:100AA00001BF009BC9F80030019BC8F80030364BED
:100AB0001B78002B00F0D680612C00F0D380062C30
:100AC00000F0D0802146284605B0BDE8F04FFFF782
:100AD0006DBC2E4B0D271B88DFF8B4B0B3FBF6F6C8
:100AE000F6042C4B2C4A46F010066AE72B4B1B8869
:100AF0004FE700BFAFF300800000000000203C4142
:100B00000000000000204C41C4010020C001002072
:100B1000290F002000BC6AF7FF083D00900100206B
:100B20009C01002041501F02A00100200000E03F76
:100B300094010020980100204053F2F27F8D5B0069
:100B40008019D0CD00F36F0641505700415053003B
:100B500015000020700000202A479E0434270685D7
:100B6000D3804C2AAE0100203A47961493004F2AB6
:100B7000845A16808C010020160E0705CC01002037
:100B8000E93102000F000E00200F0020A601002016
:100B90003A47960C942AA80093414C2AA4010020BD
:100BA00095F834303149002B08BF4FF40121304B08
:100BB000304A08BF1A46304B18BF4FF4187743EA43
:100BC00001032E4908BF4FF496670988DFF8B0B0DB
:100BD000B1FBF6F62B4947F00D0741EAC646F0E6B1
:100BE000294B40F2FD271B88DFF894B0B3FBF6F6E3
:100BF000244B43EAC646254BD5E6254B40F2AD17BC
:100C00001B88DFF87CB0B3FBF6F61E4B214A43EAA3
:100C1000C646214BD5E6214B40F2BD371B88DFF895
:100C200060B0B3FBF6F6174B114A43EAC6461C4BBD
:100C3000C7E62746A346234622462646C1E60027A6
:100C4000BB463B463A463E46BBE6D9F800300093E9
:100C5000D8F800300193134B1B68C9F80030C8F86E
:100C60000030D9E505B0BDE8F08F00BF00240600D4
:100C700093C04C2AD3804C2A34034081B001002019
:100C80002A479E0470000020AC010020342B66002F
:100C9000AA01002013C14C2A349F7400A80100202F
:100CA000343B7980C8010020014B890819707047D6
:100CB000CC01002010B52B246143164CC9092180BA
:100CC00017214A439DF818001349D2090A80F8B148
:100CD000DB08124A138016229DF808305343104A4D
:100CE000DB0913800D229DF80C3053430D4ADB09BC
:100CF00013801C229DF8103053430B4ADB091380EC
:100D0000A0229DF814305343084ADB09138010BD1C
:100D10009B08DEE7A6010020A4010020B00100200E
:100D2000AC010020AA010020A8010020AE01002093
:100D3000F8B54F4E4F4B31684F4A0B44934204462F
:100D40004E4B4F4D60D84F4A1A6001222A60022252
:100D50001B684D494D4F0A603B60FFF753FAFFF7A0
:100D600079FA4B4B1B78022B60D14A4B2A681B88BF
:100D7000B3FBF2F2484B43EAC243484A127843EAD3
:100D8000423343F4C45343F002033B60FFF73AFAA3
:100D9000FFF760FA2B683068012B55D107F096FDFC
:100DA0002FA3D3E9002307F035FF08F0C3F8054669
:100DB00007F056FB08F092FAC6B23046267108F0EA
:100DC000C3F90146284608F009F94FF08E4107F0B3
:100DD00087FB07F09DFD324B002207F03BFC07F03C
:100DE000C3FA08F087F880B2E08000012D4B40EA9A
:100DF000C64040F0804018602B4B1B7853B3204610
:100E0000BDE8F840FFF7BABC284A29480A448242A4
:100E100099D9284A0A4428498A4201D3274A93E7A4
:100E2000274A1A6002222A60012291E7062B03BF9B
:100E3000244B2A681B884FF0005302BFB3FBF2F328
:100E4000DB0443F0005398E707F040FD06A3D3E925
:100E50000023A8E72046BDE8F8400121FFF7ACBC1D
:100E60000000000000203C410000000000204C4138
:100E7000C401002000BC6AF7FF083D00900100207B
:100E80009C01002041501F02A00100208C01002085
:100E9000280F0020A401002070000020CC010020B9
:100EA0000000E03F980100202B0F00204053F2F299
:100EB0007F8D5B008019D0CD00F36F064150570045
:100EC00041505300AE01002038B50023CD08838186
:100ED0000446C381C0E9013301800374437428468A
:100EE00007F016FA6060284607F012FAA060204664
:100EF00038BDC189838989B29BB29942028805D1E4
:100F0000037C002B0CBF104600207047C1898389E9
:100F100089B29BB299423BBF8389C089C38980B2A1
:100F20002DBF80898018C01A181A80B2904288BFDD
:100F300000207047C189838989B29BB299420246D9
:100F400005D1037C03F0FF005BB110887047C189B5
:100F5000838989B29BB2994204D28389C089181AC5
:100F600080B27047C189838900889BB21844401AB7
:100F7000F6E70000037C30B51BB101234374002069
:100F800030BD83894568C3F3CC03204CEB5C00295A
:100F90002DD0818901F00701615C0B438189C1F388
:100FA000CC016B5483898168C3F3CC03CB5C2AB337
:100FB000828902F00702A25C13438289C2F3CC0249
:100FC0008B548389028801339BB2838183899BB2CE
:100FD0009A429CBF002383818289C38992B29BB2CB
:100FE0009A424FF0010308BF03741846C8E781898D
:100FF00001F00701615C23EA0103CFE7828902F077
:101000000702A25C23EA0203D7E700BFEFA60008AD
:10101000034670B58489C089A4B280B2844204D1E9
:101020001C7C04F0FF00002C2ED0D8895C68C0F333
:10103000CC00205CDE89DC89144DE44306F0070611
:10104000AE5D04F00704304020410870D9899868EB
:10105000C1F3CC01415CDC89D88904F00704C043AA
:101060002C5D00F00700214001411170002119742E
:10107000DA891888013292B2DA81DA8992B2904222
:101080004FF0010098BFD98170BD00BFEFA60008E6
:1010900003460022407C5A74704710B54FF4967294
:1010A0000021044608F01CFA00232046A4F82C3145
:1010B000A4F82E3184F8303110BD0000B0F82C3186
:1010C0002DE9F0410446002B38D01D4802F0B0FC59
:1010D00005461C4E1C4FDFF868800C2D2ED9B4F845
:1010E0002E314046D90803F00702B25C635C0C3D28
:1010F000134019BF00230C220C22394618BF134994
:1011000002F072FC94F83031ADB20133DBB2272B20
:1011100084F8303107D9B4F82E310133A4F82E31D8
:10112000002384F83031B4F82E21B4F82C319A42DF
:10113000D3D30023A4F82E31A4F82C31BDE8F081DC
:10114000BC09002008A90008B40100200900002003
:101150002DE9F74F8A46019200214FF4967204461A
:1011600008F0BEF90823A4F82C3100234FF00C0935
:10117000284EA4F82E3184F830310199DAB2914228
:101180003ED90021CAB209FB02F206EB020CB25CA6
:10119000A2B31AF8030001319042F3D100254FF0B9
:1011A00000409CF808B0E9B28B45B4F82C2125D951
:1011B000DFF8648002F0070718F807804FEAD20EC4
:1011C000DCF8047014F80E1030EA07070CBF41EA8F
:1011D000080121EA0801B2F5937F04F80E1005F129
:1011E000010506D900230420A4F82C3103B0BDE882
:1011F000F08F0132A4F82C214008D4E70133BCE77A
:10120000B4F82C31082BEDD005330020A4F82C3194
:10121000ECE700BFF8A6000808A900080023A0F822
:101220002C31A0F82E3180F830317047002310B5F2
:10123000038080F824308362064B821C03F1200176
:1012400053F8044B8B4242F8044BF9D11B881380AE
:1012500010BD00BF23A9000830B50F4DC1EBC1047C
:101260002B195A78017C42749A782C5D8274DA7852
:1012700021F00F01C2741A7904F00F0402755A7933
:101280009B794275827D23F00F0302F00F02214308
:1012900013430174837530BD45A9000810B5044699
:1012A0001C4800F0EDFB1B4800F056FC68B1637869
:1012B000022B0BD0032B23D0012B28D1222216493D
:1012C000144800F095FB0223637010BD204694F88B
:1012D0002410FFF7C1FF22220E48A11C00F088FB5A
:1012E00094F82430052B07D1002384F82430237888
:1012F000002BEAD10323E7E7013384F82430E4E745
:1013000022220649034800F073FB0023DCE7002398
:101310006370F2E7C80300206FA9000891A90008D4
:1013200007B51D4A1278622A08D0642A18D05C2AB0
:101330001CD103B05DF804EBFFF7B0BF017849B1F1
:101340000121164800F084FB144803B05DF804EB5B
:1013500000F096BB114803B05DF804EB00F078BBD9
:10136000826A0F4901328A4203D8826203B05DF873
:1013700004FB002201A982620DF10602094802F075
:10138000B7FDBDF80420BDF90630074907485208EB
:1013900005F0B0F9EAE700BF1C0F0020C8030020E9
:1013A00063770100BC09002010A90008C4120020C6
:1013B000012A08B514D10B78012B0CBF01220022A1
:1013C00002700BD1427822B9064A12785C2A00D109
:1013D0004370012202210448FFF70EFA002000E0CA
:1013E000042008BD1C0F0020BC0900200022026060
:1013F000027182604FF6FF72C2607047036813B5D6
:101400000133B3F5FA4F0446036035D31B48FEF7AA
:1014100059FF0023E18922798142A189236002F1E9
:101420000102A368D2B238BFE0818142034488BF81
:10143000A081052A2271A3601ED90622B3FBF2F314
:10144000E1898DF80530080A8DF80110A1898DF821
:1014500000008DF80310080AC3F307218DF802007D
:101460008DF804100648694605F01CF90023237125
:10147000A3604FF6FF73E36002B010BDBC0900200B
:10148000C41200200023002210B500210446E0E829
:101490000223482208F024F80023044A2046C4E925
:1014A0001D32E367A4F8803010BD00BF00000F2795
:1014B0000023044A80F87F30A0F876308267A0F8D5
:1014C0007C30704700000F278188036810B5044600
:1014D000294881F45541584081F0D70105F002FDBB
:1014E000032817D8402384F87C30B4F8743003F212
:1014F000A51292B2B2F5107FA4F8763039D2A4F8D2
:10150000782003F16C0292B2B2F5107F1CD2A4F8DD
:101510007A201DE0A1882368184881F4574158407B
:1015200081F0550105F0DEFC0328DBD9A188236892
:10153000134881F4FE41584081F07D0105F0D2FC52
:10154000032809D82023CEE7A3F5EA73A4F87A305C
:1015500000220C4B1A6010BDA18823680A4881F450
:10156000FB41584081F07F0105F0BCFC0328E9D91C
:10157000F1E7A3F19B02C2E757D77FF7F5F75F7F4B
:10158000FD7DD55D240F00205F5DF5D5F0B500260B
:10159000714D1A449A4200F0DE801E7000EBD104B7
:1015A00001F00707247AEF5D3C40CF4307F00707BF
:1015B0003C41E4011C7067B24C1CA4B2B4F5107F2E
:1015C00024BFA1F23F218CB200EBD40104F0070C40
:1015D000097A15F80CC001EA0C016FEA040C0CF052
:1015E000070C41FA0CF147EA8111671CBFB2B7F54D
:1015F000107F24BFA4F23F24A7B249B2197000EBB8
:10160000D70407F0070C247A15F80CC004EA0C0480
:101610006FEA070C0CF0070C44FA0CF441EA441191
:101620007C1C1FFA84FCBCF5107F24BFA7F23F246A
:101630001FFA84FC49B2197000EBDC040CF0070EB1
:10164000277A15F80E4027406FEA0C0404F00704CF
:1016500027410CF101041FFA84FEBEF5107F28BF5C
:10166000ACF23F2441EA071128BF1FFA84FE49B2B9
:10167000197000EBDE040EF0070C277A15F80C4009
:1016800027406FEA0E0404F0070427410EF101041D
:101690001FFA84FCBCF5107F28BFAEF23F2441EA5C
:1016A000C70128BF1FFA84FC49B2197000EBDC04A3
:1016B0000CF0070E277A15F80E4027406FEA0C044D
:1016C00004F0070427410CF101041FFA84FEBEF563
:1016D000107F28BFACF23F2441EA870128BF1FFAE0
:1016E00084FE49B2197000EBDE040EF0070C277A75
:1016F00015F80C4027406FEA0E0404F00704274158
:101700000EF101041FFA84FCBCF5107F28BFAEF275
:101710003F2441EA470128BF1FFA84FC49B21970EF
:1017200000EBDC040CF0070E277A15F80E4027407A
:101730006FEA0C0404F0070427410F430CF1010188
:1017400089B2B1F5107F03F8017BFFF423AFACF24F
:101750003F2189B21EE7F0BDB3A9000880F87E10D2
:101760007047000010B508480C46FEF7ABFD030AB1
:1017700084F8223084F823002246BDE81040242358
:101780000121024804F08CBDBC090020C4120020D5
:1017900073B50446B0F87400894E04EBD00200F033
:1017A0000705137A755D00294FD02B431372D4E9D6
:1017B0000032DB18524100294AD1C4E9003294F8C2
:1017C0007F30002B47D12046FFF77EFEB4F874200F
:1017D000B4F87A309A4269D194F87C3004F151051A
:1017E00084F8503021222B462046B4F87810FFF7B9
:1017F000CDFE94F87C30402B40F0938001A800F09F
:1018000037FF0DF107030DF10602294601A800F08C
:101810005DFF94F87E209DF806309A4243D1002364
:1018200094F8502084F87D3084F880309DF807309B
:101830001A4384F850200A2B6AD8DFE803F0585C7A
:1018400065696969294C4C694C0023EA0503ADE7D9
:1018500043F00103B1E7B4F8761001F23E239BB2E6
:10186000B3F5107F01F1020292B224BF8B1E9BB22E
:10187000B2F5107F24BFA1F23E2292B2934204D26D
:101880008342A3D88242A1D39DE78342FAD89AE744
:10189000204604F15001FFF765FF022384F87F30F2
:1018A000002384F88130002384F87C30B4F874304D
:1018B00094F87F1001339BB2B3F5107F28BF00234B
:1018C000003918BF01213F48A4F8743002B0BDE8C8
:1018D000704002F0F7BA94F87F30022BE3D1204633
:1018E00004F15001FFF73EFF9DF80730D9E794F867
:1018F0007F30012B04D1204604F15001FFF732FF65
:10190000012384F87F30CEE794F87F30012BCAD1D1
:10191000204604F15001FFF725FF2046FFF7C8FDE0
:10192000C1E7202B0CD104F15001FFF71BFF01236D
:1019300084F87F30002384F87D3084F88030B2E76B
:1019400094F87F3073B194F87D300133DBB20C2B07
:1019500084F87D3006D91C48012104F0D1FC2046D2
:10196000FFF7A6FD94F87F30012B18D194F8803052
:101970000121042B83BF202384F85030002301333E
:1019800097BFDBB284F8803084F8803084F8503020
:101990000D48222304F1500204F082FC83E7022B5D
:1019A00081D194F88130002B3FF47DAF214643F084
:1019B0004003204601F8503FFFF7D4FE73E700BF15
:1019C000B3A90008BC090020C412002010B50446C9
:1019D00040F26B3104F0D0FE5022002104F11000DF
:1019E00007F07EFD0022F0232046C4E9182310BD35
:1019F000222A70B505460C460ED104F0D0FE2028F0
:101A00000CD904F1210614F8011F284604F007FF41
:101A1000B442F8D1002070BD0420FCE70520FAE7AD
:101A200073B50C460825094EE3098DF807300122ED
:101A3000002330460DF10701013D01F0D5FF6400A0
:101A400015F0FF05E4B2EFD102B070BDBC09002073
:101A500080F8671070470000084B10B51B780446EB
:101A6000622B07D121225F21103007F039FD21239D
:101A7000A4F860300023A4F8623010BD1C0F0020D1
:101A800090F8673070B50446B0F8605053B305B3B2
:101A90002E4801F0CDFF0546082D22D9B4F862305A
:101AA00094F866105A1C92B2A4F8622000294AD019
:101AB0005F212046FFF7B4FFB4F86220B4F860302D
:101AC000083D9A42ADB2E7D30023236684F866301E
:101AD00007E080F86650FFF7BFFFB4F86030002BD6
:101AE000D6D170BD002DD3D104F07AFE0028F4D0F9
:101AF000174B1B7853B9012384F86630B4F864306F
:101B0000A4F860300023A4F86230E6E784F8665059
:101B100004F1100604F13105204604F0A5FE06F894
:101B2000010BB542F8D12B460A4A02F1240152F8C2
:101B3000040B8A4243F8040BF9D11188927819807A
:101B40009A704823DCE72344197CB2E7BC090020E3
:101B50002B0F0020BBA9000808B504F020FE2323AA
:101B6000B0FBF3F080B208BD01EB4101890001F543
:101B70001671A0F8641070470023002210B50446C7
:101B80000021E0E80223282207F0AAFC034B2046AC
:101B90002363002384F8343010BD00BF00000F27FA
:101BA000014B0363704700BF00000F27F0B500260C
:101BB000764D1A449A4200F0E8801E7000EBD10482
:101BC00001F00707247AEF5D3C40CF4307F0070799
:101BD0003C41E4011C7067B24C1CA4B2B4F5A07F78
:101BE00022BF6FF49F7C61448CB200EBD40104F0FF
:101BF000070C097A15F80CC001EA0C016FEA040C15
:101C00000CF0070C41FA0CF147EA8111671CBFB2D6
:101C1000B7F5A07F22BF6FF49F77E419A7B249B24E
:101C2000197000EBD70407F0070C247A15F80CC0E4
:101C300004EA0C046FEA070C0CF0070C44FA0CF4ED
:101C400041EA44117C1C1FFA84FCBCF5A07F22BF32
:101C50006FF49F743C191FFA84FC49B2197000EBB1
:101C6000DC040CF0070E277A15F80E4027406FEAC7
:101C70000C0404F0070427410CF101041FFA84FE50
:101C8000BEF5A07F28BF6FF49F7E41EA071124BFF5
:101C90000CEB0E041FFA84FE49B2197000EBDE044F
:101CA0000EF0070C277A15F80C4027406FEA0E0457
:101CB00004F0070427410EF101041FFA84FCBCF56F
:101CC000A07F28BF6FF49F7C41EAC70124BF0EEBC1
:101CD0000C041FFA84FC49B2197000EBDC040CF010
:101CE000070E277A15F80E4027406FEA0C0404F01F
:101CF000070427410CF101041FFA84FEBEF5A07F02
:101D000041EA870122BF6FF49F770CEB07041FFAAB
:101D100084FE49B2197000EBDE040EF0070C277A3E
:101D200015F80C4027406FEA0E0404F00704274121
:101D30000EF101041FFA84FCBCF5A07F28BF6FF4EC
:101D40009F7441EA470124BF74441FFA84FC49B2DE
:101D5000197000EBDC040CF0070E277A15F80E4022
:101D600027406FEA0C0404F0070427410F430CF1ED
:101D7000010189B2B1F5A07F03F8017BFFF41AAF2E
:101D80006FF49F71614489B214E7F0BDE2A90008C5
:101D900030B5028E374D044600EBD20002F0070248
:101DA000037AAA5C8BB000295ED013430372D4E996
:101DB0000032DB185241002959D1C4E90032A18810
:101DC00023682D4881F45541584081F0D70105F032
:101DD00089F80228238E08D803F16C0292B2B2F57A
:101DE000A07F28BFA3F1D4026286628E934231D1D4
:101DF00003F1390189B2B1F5A07F22BF6FF483727C
:101E00009B1899B221220DF105032046FFF7CEFE63
:101E1000684600F02DFC0DF103030DF10202684647
:101E20000DF1050100F052FC94F834209DF80230C9
:101E30009A420CD19DF80330032B08D1C323002113
:101E40008DF804300D48222301AA04F029FA42F249
:101E50000F736386238E01339BB2B3F5A07F28BF37
:101E6000002323860BB030BD23EA02039EE743F034
:101E70000103A2E7E2A9000857D77FF7C4120020A8
:101E800080F83410704710B5044600F025F80023A0
:101E9000204684F8C03010BD38B590F8C0300D46EB
:101EA00093420446114605D080F8C02002B10121BA
:101EB00000F038F82946204600F066FBBDE83840BF
:101EC0000146014801F0FEBFBC09002000F0A0B9A6
:101ED00000F0A1B900F044B838B500220025002375
:101EE0000446C0E90223057048222946103007F055
:101EF000F7FA0B4B2046C4E92035C4E92C35A4F889
:101F00005850A4F87E5084F88850A4F8AE5084F855
:101F1000B850A4F8BA5084F8BC50A4F8BE5038BDEC
:101F200000000F2700230170A0F8BA3070470000AE
:101F30000023044AA0F87E30C0E9202380F88830CE
:101F4000704700BF00000F270023044AA0F8AE30FE
:101F5000C0E92C2380F8B830704700BF00000F277D
:101F600038B5002200240025A0F85820C0E9024519
:101F7000A0F8BA20FFF7DCFFBDE83840FFF7E4BF68
:101F8000818938B5836804462B4881F4554158400F
:101F900081F0D70104F0A6FF03281FD84020B4F831
:101FA0005810257801F2A51292B2B2F5107F01F116
:101FB0006C039BB224BFA1F19B0292B2B3F5107FD8
:101FC00024BFA1F5EA739BB265B3A4F8AE10A4F8E0
:101FD000B020A4F8B23084F8B40038BDA189A36859
:101FE000164881F4FE41584081F07D0104F07AFFEB
:101FF0000328F2D8B4F85810202001F2A51292B2AA
:10200000B2F5107F01F16C039BB224BFA1F19B02DA
:1020100092B2B3F5107F28BFA1F5EA73257828BFE7
:102020009BB2D1E7A4F87E10A4F88020A4F88230F7
:1020300084F88400D1E700BF57D77FF7FD7DD55DD9
:10204000F0B50026714D1A449A4200F0DE801E70F1
:1020500000EBD10401F00707247CEF5D3C40CF4347
:1020600007F007073C41E4011C7067B24C1CA4B2A6
:10207000B4F5107F24BFA1F23F218CB200EBD40154
:1020800004F0070C097C15F80CC001EA0C016FEA9A
:10209000040C0CF0070C41FA0CF147EA8111671CA3
:1020A000BFB2B7F5107F24BFA4F23F24A7B249B254
:1020B000197000EBD70407F0070C247C15F80CC04E
:1020C00004EA0C046FEA070C0CF0070C44FA0CF459
:1020D00041EA44117C1C1FFA84FCBCF5107F24BF2C
:1020E000A7F23F241FFA84FC49B2197000EBDC040C
:1020F0000CF0070E277C15F80E4027406FEA0C0401
:1021000004F0070427410CF101041FFA84FEBEF518
:10211000107F28BFACF23F2441EA071128BF1FFA05
:1021200084FE49B2197000EBDE040EF0070C277C28
:1021300015F80C4027406FEA0E0404F0070427410D
:102140000EF101041FFA84FCBCF5107F28BFAEF22B
:102150003F2441EAC70128BF1FFA84FC49B2197025
:1021600000EBDC040CF0070E277C15F80E4027402E
:102170006FEA0C0404F0070427410CF101041FFA74
:1021800084FEBEF5107F28BFACF23F2441EA8701F0
:1021900028BF1FFA84FE49B2197000EBDE040EF06E
:1021A000070C277C15F80C4027406FEA0E0404F05A
:1021B000070427410EF101041FFA84FCBCF5107FCF
:1021C00028BFAEF23F2441EA470128BF1FFA84FC32
:1021D00049B2197000EBDC040CF0070E277C15F8EF
:1021E0000E4027406FEA0C0404F0070427410F4318
:1021F0000CF1010189B2B1F5107F03F8017BFFF406
:1022000023AFACF23F2189B21EE7F0BDEAA9000876
:1022100080F8BC1070470523B1FBF3F1A0F8BE10A5
:102220007047000010B504460748FEF74BF840BA67
:10223000A4F87C0004F15A022423BDE810400021D8
:10224000024804F02DB800BFBC090020C4120020D1
:1022500037B5B0F88230B0F8582004469A4242D1DF
:1022600090F8843000F15B0580F85A3021222B462B
:10227000B0F88010FFF7E4FE90F88430402B5ED178
:1022800001A800F0F5F90DF107030DF1060229464A
:1022900001A800F01BFA94F8BC209DF806309A4281
:1022A0001ED1002594F85A209DF8073084F88550F7
:1022B0001A4384F8875084F85A200A2B39D8DFE86B
:1022C00003F01E222938383806141438140020462A
:1022D000FFF7A8FF022384F88630002384F88830B3
:1022E000002384F8843003B030BD94F88630022B8C
:1022F000F6D12046FFF796FF9DF80730EEE794F8F9
:102300008630012B02D12046FFF78CFF012384F891
:102310008630E5E794F88630012BE1D12046FFF7BF
:1023200081FF002384F8863042F20F73A4F88230D4
:10233000D6E72046FFF776FF84F88650F4E7202B97
:1023400008D1FFF76FFF002384F885300123A4F83C
:102350008630C5E790F8863073B190F88530013348
:10236000DBB20C2B80F8853006D91948002103F028
:10237000C7FF2046FFF7DCFD94F88630012B18D10B
:1023800094F887300021042B83BF202384F85A302F
:102390000023013397BFDBB284F8873084F887309D
:1023A00084F85A300A48222304F15A0203F078FFD5
:1023B00096E7022B94D194F88830002B90D043F00C
:1023C0004003204684F85A30FFF72CFF88E700BF0F
:1023D000C412002010B504460848FDF773FF030A35
:1023E00084F8AB3084F8AC0004F189022423BDE802
:1023F00010400121024803F053BF00BFBC09002078
:10240000C412002037B5B0F8B230B0F858200446F6
:102410009A4242D190F8B43000F18A0580F88930B0
:1024200021222B46B0F8B010FFF70AFE90F8B43026
:10243000402B5ED101A800F01BF90DF107030DF14F
:102440000602294601A800F041F994F8BC209DF845
:1024500006309A421ED1002594F889209DF8073055
:1024600084F8B5501A4384F8B75084F889200A2BB1
:1024700039D8DFE803F01E2229383838061414381A
:1024800014002046FFF7A6FF022384F8B63000238D
:1024900084F8B830002384F8B43003B030BD94F829
:1024A000B630022BF6D12046FFF794FF9DF8073097
:1024B000EEE794F8B630012B02D12046FFF78AFFF1
:1024C000012384F8B630E5E794F8B630012BE1D16A
:1024D0002046FFF77FFF002384F8B63042F20F73E7
:1024E000A4F8B230D6E72046FFF774FF84F8B65060
:1024F000F4E7202B08D1FFF76DFF002384F8B530F7
:102500000123A4F8B630C5E790F8B63073B190F85F
:10251000B5300133DBB20C2B80F8B53006D9194841
:10252000012103F0EDFE2046FFF70EFD94F8B630D2
:10253000012B18D194F8B7300121042B83BF20233D
:1025400084F889300023013397BFDBB284F8B730B9
:1025500084F8B73084F889300A48222304F18902CC
:1025600003F09EFE96E7022B94D194F8B830002B2E
:1025700090D043F04003204684F88930FFF72AFFCB
:1025800088E700BFC4120020B0F8BA30B0F8BE200F
:1025900001339BB29A4270B5044690F88650A0F879
:1025A000BA3002D97DB3012070BDB0F858002F4A6F
:1025B00000F00703D35C04EBD002167C49B333432D
:1025C0001374D4E90232DB18524129BBC4E9023248
:1025D00015B194F8B63013BB2046FFF7D1FC237831
:1025E0002046002B3ED0FFF70DFFB4F858300133E2
:1025F0009BB2B3F5107F28BF0023A4F8583094F89D
:102600008630002BCFD194F8B600003818BF0120D7
:10261000CAE726EA0303D3E743F00103D6E72378AA
:10262000D3B1B4F8AE3003F23E2292B2B2F5107FCD
:1026300003F102039BB224BFA2F5107292B2B3F56C
:10264000107F24BFA3F510739BB29A4207D2824237
:10265000C5D88342C3D3BFE7B4F87E30E3E78242F4
:10266000F7D8B9E7FFF7F4FDBFE700BFEAA9000814
:1026700070470000B1F5006F084610B50DD34FF458
:10268000802340F675440549034201D15B08FBE70E
:10269000DA0A624350400842F6D110BD00F8FFFF4D
:1026A00010B54C780B78E400897804EBC32404EB74
:1026B00051142146FFF7DEFF034B53F82000604022
:1026C000C0F3C72010BD00BFF4A9000873B51546BC
:1026D0004A7B0E7B1C46930943EA86038DF804303F
:1026E0000B7DC97C9200890022F03F0201F03C0181
:1026F000114341EA93119B008DF8051023F00F035D
:1027000001A98DF80630FFF7CBFF030900F00F0099
:102710002B70207002B070BD187B02F00F0242EAED
:102720000112D1B220F03F00124A40EA910030B5C8
:10273000187312F81150587B32F8114000F00F0056
:10274000AA0840EA811102F0300001435973D97C94
:1027500002F00F0221F00F0111431A7DD97402F02B
:102760000302A10A42EA851201F03C010A431A75EC
:1027700030BD00BFF4C9000870B504464FF47A714B
:1027800003F0FAFF4FF47A7104F1100003F0F4FF44
:102790000025212228262946A01884F8205006F07A
:1027A0009FFE3246294684F8425004F15B0006F051
:1027B00097FE3246294604F1830006F091FE0D4A49
:1027C000204613681168C4F84F305368C4F84310AA
:1027D000C4F8533051689368C4E92B55C4F8573096
:1027E000C4F84710C4F84B30A4F8B45084F8B6507D
:1027F00070BD00BFF4CB0008222A70B505460C4618
:102800001CD103F0CCFF20281AD995F8B4302BB195
:10281000284603F0BFFF002385F8B43004F12106F9
:1028200014F8011F284603F0FAFFB442F8D1064B12
:10283000187838B9012385F8203070BD0420FCE7F2
:102840000520FAE70020F8E72B0F0020222AF8B530
:1028500005460C461FD100F11006304603F09FFFDD
:1028600020281AD995F8B5302BB1304603F092FFE5
:10287000002385F8B53004F1210714F8011F304614
:1028800003F0CDFFBC42F8D1064B187838B90123CC
:1028900085F82030F8BD0420FCE70520FAE7002089
:1028A000F8E700BF2B0F0020092A2DE9F0412AD1BB
:1028B0000023164E164FC0F84F30C0F85330C0F802
:1028C000573016F8014B03F0070800EBD40504F06D
:1028D000070417F804C0C3F3C40411F804E017F8A0
:1028E000084095F84F201EEA040F03F1010314BFBE
:1028F00042EA0C0222EA0C02442B85F84F20E0D178
:102900000020BDE8F0810420FBE700BF29CC0008CF
:1029100021CC0008012A04D10B78012B03D0022B13
:1029200005D00420704780F8B4300020704780F84C
:10293000B520FAE7002380F82010C0F8B030A0F8E6
:10294000B43070472DE9F347002506460C4617467C
:10295000A9464FF0010A90F8B630DFF84C808DF8A8
:102960000730E309072D8DF8063007D1042F15D164
:102970008DF807A09DF8073086F8B6300122404652
:102980000DF107030DF10601013501F02DF864008A
:10299000082DE4B2E5D102B0BDE8F087082F08BFEA
:1029A0008DF80790E6E700BFBC09002008B503F0EA
:1029B000F6FE2323B0FBF3F0C0B208BD08B510301B
:1029C00003F0EDFE2323B0FBF3F0C0B208BD2DE908
:1029D000F84300EB0117044638460D4603F000FFAC
:1029E00004F1210618B1D4F8B030132B23D80022FB
:1029F0006319954283F8B4200CBF082104213346A3
:102A000004F1830204F1410053F8045B834242F86D
:102A1000045BF9D11B7813700023184604F15B02A4
:102A2000082B18BFD05403F1010308BF84F86310CA
:102A3000212BF5D119E0002D0CBF4FF008084FF005
:102A4000040825464FF00009384603F00DFF2B1B04
:102A5000082B85F8830018BF85F85B9005F1010508
:102A600008BF84F86380B542EED12123C4F8AC30AE
:102A7000BDE8F883F8B5D0F8B03004460133C0F8AB
:102A8000B03090F842300F460B2B164600F143054C
:102A900016D9002380F84230204603F0A1FE00281A
:102AA00066D104F1100003F09BFE002860D1374A84
:102AB0001368C4F8433053686B609368AB6001E0FF
:102AC000002BE9D0002094F84230EA18EB5AA4F821
:102AD0008330937884F85B0084F88530D4F8B03084
:102AE000A4F85C00132B06D904EB061003F078FE63
:102AF000003818BF01207B1E94F842205D425D41E2
:102B0000002A3FD0B2F1090C18BF4FF0010C01268A
:102B100094F88330012F80EA050143EAC0100CBF0E
:102B200008230023184394F88430754043EAC61301
:102B3000B14214BF02260026654514BF202500259A
:102B400043EACC03334384F8843094F885306145FC
:102B500014BF022100211D4303230D431A4484F8AE
:102B6000830084F88550C4F8AC3084F84220F8BD66
:102B7000D4F84F30C4F84330D4F853306B60D4F8F5
:102B800057309BE716464FF0010CC1E7F4CB000825
:102B900038B590F8203004468BB3B0F8AC206AB951
:102BA000013B042B37D8DFE803F00336312B090053
:102BB0000021FFF70CFF042384F82030B4F8AC3078
:102BC000EBB1184800F034FF0546082D17D9B4F8CA
:102BD000AE302046E218013392F8831092F85B2061
:102BE000A4F8AE30FFF7AEFEB4F8AE20B4F8AC30C7
:102BF000083D9A42ADB2E8D30023C4F8AC3038BDEA
:102C000000220121FFF736FF0323D5E70121FFF75B
:102C1000DEFE0223D0E701220021FFF72BFF012374
:102C2000CAE700BFBC09002037B521300C46054675
:102C30000A4A02F1200352F8041B9A4240F8041B8E
:102C4000F9D11378037001A8FFF712FD2B46092272
:102C5000214601A8FFF760FD03B030BD00CC00089D
:102C600070B50023002500220446A826C0E90223EF
:102C7000294605706422103006F032FC324629469F
:102C8000C4E91D55C4E91F55C4E92155C4F88C5049
:102C900004F1900006F024FC3246294604F59C70AD
:102CA00006F01EFC3246294604F5F07006F018FCCA
:102CB0003246294604F5227006F012FC2A222946E3
:102CC00004F54C7006F00CFC204670BD002330B5B6
:102CD00000240025C0E91D33C0E90245037030BD62
:102CE0002DE9F0470B68D0F88070D0F8886007EBCA
:102CF00003080B69C46F06EB030CE045C646A8BF8A
:102D0000E646E045B4BFDFF8D4C0DFF8D4C04FEAF0
:102D1000D40300EB830304F00702D3F89050B5BF4F
:102D20001CF802C01CF802C00CEA05054CEA0505B7
:102D3000C3F890504D682F444D69BC462E44B742AD
:102D4000A8BFB446B742B4BF244E254ED3F838517D
:102D5000B5BFB65CB65C35403543C3F83851D0F8E2
:102D600084808D688F6908EB050AD0F88C50D3F801
:102D7000E06105EB0709CA455746A8BF4F46CA455B
:102D8000B5BFDFF85890DFF8589019F8029019F89D
:102D90000290B4BF09EA060649EA0606C3F8E061F4
:102DA000CE68C96946440D44AE42B046A8BFA846A5
:102DB000AE42D3F888120CDA084DAA5C0A40C3F878
:102DC00088220134C0E920ECC0E92278C467BDE85C
:102DD000F087034DAA5C0A43F1E700BF7ACE0008F2
:102DE00082CE000870B5D1E9003283F0010588B0C9
:102DF000D11882F001062A443344CDE9051200912E
:102E000074196946CDE90324019402930793FFF7EF
:102E100067FF08B070BD0000002240F24911134660
:102E2000F0B5264C264E032B19D8DFE803F0021B21
:102E30002F3BCD1001F007032435E75C50F8253017
:102E40003B4018BF022300EBD20702F00705755D77
:102E500097F830C305EA0C0587F830530132013981
:102E6000E1D2F0BDCD1001F007034E35E75C50F81C
:102E700025303B4018BF022300EBD20702F00705C4
:102E8000655D97F830C345EA0C05E5E7CB1078336C
:102E900001F0070550F82330655D1D420CBF01238A
:102EA0000323D0E7CD10A23501F00707E75D50F806
:102EB00025502F4208BF0123DEE700BF82CE000865
:102EC0007ACE00084FF0FF3230B5104D481E01F1A8
:102ED000260410F8013F5340DBB235F81330C2F33B
:102EE0000722534084421A46F3D1DB4391F827006E
:102EF0009AB2DBB2984207D191F82830B3EB122F87
:102F00000CBF0120002030BD0020FCE77ACC000877
:102F10002DE9F041884614464B1E8149054698B07C
:102F200008F1520013F8016F11F8012B984282EA60
:102F300006021A70F6D15422002103A806F0D0FA36
:102F400080270022774E06EB4200B2F5257F52DB48
:102F500000264FF080084027C5E92066C5E92266B3
:102F6000EE6718AB03EBE60313F8542C06F00703E7
:102F700028FA03F1114227FA03F314BF01210021BB
:102F8000134214BF012300230291284601A90236EF
:102F90000193FFF727FFB6F5257FE2D1FFF73CFF4E
:102FA00029220021204606F09BFA40F2491201270F
:102FB00010465D4E05EBE20102F0070E91F830C3BA
:102FC00016F80E10831A1CEA010F09D0D90814F85C
:102FD00001C003F0070307FA03F343EA0C03635449
:102FE000013AE7D221462846FFF76CFF18B0BDE84A
:102FF000F0811A46A9E7D31018F80310CB070ED5B5
:1030000090F800C00CF160030DEB030C43781CF842
:1030100054EC27FA03F343EA0E030CF8543C8B07F5
:103020000ED590F802C00CF160030DEB030CC378D1
:103030001CF854EC27FA03F343EA0E030CF8543C53
:103040004B070ED590F804C00CF160030DEB030C98
:1030500043791CF854EC27FA03F343EA0E030CF807
:10306000543C0B070ED590F806C00CF160030DEB35
:10307000030CC3791CF854EC27FA03F343EA0E035C
:103080000CF8543C131DB3F5257F00F10800B0DAAD
:10309000C8060ED516F8130006EB430360306844EB
:1030A0005B7810F854CC27FA03F343EA0C0300F8DA
:1030B000543C8B060FD5531D16F8130006EB430343
:1030C000603068445B7810F854CC27FA03F343EA85
:1030D0000C0300F8543C48060FD5931D16F8130056
:1030E00006EB4303603068445B7810F854CC27FA51
:1030F00003F343EA0C0300F8543C0B060ED5D31D32
:1031000016F8131006EB4303603169445B7811F83D
:10311000540C27FA03F3034301F8543C083212E736
:103120009ACE0008F5CE000882CE000810B50848F7
:103130000C46FDF7C7F8030A84F82A00214684F8F4
:1031400029302B22BDE81040024803F015B800BF1B
:10315000BC090020C412002070B5D0E90232DB188F
:103160005241C0E90232426F044600EBD206307C85
:103170008CB002F0070591B343F00103A3601A4B32
:103180005B5D18430132B2F5487F3074626702D943
:103190002046FFF79BFD636FB3F5257F1BD104F13C
:1031A00010052946204601AAFFF7B2FEA8B1012169
:1031B0000E4800F087FE204601A9FFF7B7FF0E2258
:1031C0000021284606F08CF9002363670223237050
:1031D0004FF41653A3670CB070BD2070FBE7044B8F
:1031E0005B5D1840CEE700BF92CE0008BC0900200E
:1031F0008ACE000810B507480C46FDF763F8030AAD
:103200006073214623730E22BDE81040024802F08D
:10321000DFBF00BFBC090020C4120020D0E9023289
:10322000DB1870B55241044671B90025C4E9023279
:10323000A068294680F0AA3003F054FE022806D880
:10324000204B1D60257070BD43F00103EDE7A068C1
:10325000294620F07F431C48584003F043FE0228D3
:1032600009D85322294604F1100006F039F9012348
:1032700065672370E7E7A068294620F07F4313487D
:10328000584003F02FFE05460028DCD101211048EC
:1032900000F018FE0F4A04F110061368314623614E
:1032A0005368204663619368A361FFF7A3FF0E2272
:1032B0002946304606F014F94FF416536567A367A4
:1032C0000223D6E7240F00205076550068B4AA00E8
:1032D000BC0900206DCC0008F8B5D0E90232DB183B
:1032E0005241C0E90232426F044600EBD206307C04
:1032F00002F00705002900F0838043F00103A3607A
:10330000414B5B5D18430132B2F5487F3074626710
:1033100002D92046FFF7DAFCA189A3683B4881F473
:103320002A41584081F0AA0103F0DCFD012809D8A8
:103330000021374800F0C6FD364802F093FF002315
:103340002370F8BD636F5C2B04D8636F602B1ED0B5
:1033500000230FE0A068002120F07F432E48584052
:1033600003F0C0FD0328F0D84FF416536022C4E9DF
:103370001D230123A56F013DA56705BB29462448F0
:1033800000F0A0FD234802F04FFF2570D9E701258A
:103390006FF07F46204FA06826FA05F3034027FA16
:1033A00005F00021584003F09DFD032803D8636F0A
:1033B0005B1B6367CCE70135042DECD1C8E7626F76
:1033C000602ABED104F11005A3B15523637641F202
:1033D0002D63294620466383FFF70CFF01210C482B
:1033E00000F070FD0E220021284606F079F8002337
:1033F0006367A6E70C222946064802F0E9FEEDE7DE
:10340000064B5B5D18407EE792CE00085E13AAAAC9
:10341000BC090020C412002068B4AA008ACE0008AB
:103420000378012B04D0022B04D02BB9FFF7F6BE92
:10343000FFF792BEFFF750BF704710B504464FF438
:103440007A7103F099F95A22002104F1100006F074
:1034500047F800234FF470122046A4F86A30E26661
:1034600084F8703010BD292A70B505460C4612D17B
:1034700003F095F9292810D90021284603F0CFF947
:10348000661E283416F8011F284603F0C8F9A64224
:10349000F8D1002070BD0420FCE70520FAE70C2AD3
:1034A00070B505460C4612D103F079F90C2810D9F5
:1034B0000121284603F0B3F9661E0B3416F8011FEC
:1034C000284603F0ACF9A642F8D1002070BD0420D4
:1034D000FCE70520FAE710B5044603F060F928B1CF
:1034E0000221204603F09BF9002010BD0520FCE7D7
:1034F0002DE9F04F144697B00D465322002101A844
:1035000005F0EEFF53220021204605F0E9FF0022DE
:10351000691E104615464FF0010EDFF890C10346B4
:1035200016462846002711F8018F0EFA07F518EA0B
:10353000050F14BF0125002505EB030903442B44A7
:10354000DB0709F001090CD506F007031CF803A0FE
:1035500016AB03EBD60313F854BC4AEA0B0A03F884
:1035600054ACB9F1000F0ED0731C0DF1580909EBE2
:10357000D30903F0070319F854AC1CF8033043EAED
:103580000A0309F8543C0137082F034606F10206E6
:1035900079D11032B2F5287FC1D1002301204449EE
:1035A00001EB4302B3F5257F71D216AD05EBD306CF
:1035B00016F8545C16F9546C002E08DA1778567811
:1035C00014F807C000FA06F646EA0C06E6556E0641
:1035D00008D59778D67814F807C000FA06F646EAB8
:1035E0000C06E655AF0608D51779567914F807C0CA
:1035F00000FA06F646EA0C06E655EE0608D5977977
:10360000D67914F807C000FA06F646EA0C06E65525
:103610001E1DB6F5257F02F1080236D22A0709D50C
:1036200011F8167001EB46067278E65D00FA02F2B8
:103630003243E2556F070AD55A1D11F8126001EBAB
:1036400042025278A75D00FA02F23A43A255AE0751
:103650000AD59A1D11F8126001EB42025278A75D5B
:1036600000FA02F23A43A255EA070AD5DA1D11F828
:10367000125001EB42025278665D00FA02F23243C8
:10368000625508338CE728464FE733468AE70949F5
:10369000631E523413F8010F11F8012B9C4282EA89
:1036A00000021A70F6D117B0BDE8F08F1DD40008E3
:1036B00080D4000825D40008F7B50E46082401255B
:1036C0000B4F35EA06030CBF0123002301228DF8BE
:1036D0000730384600230DF10701013C00F084F962
:1036E0006D0014F0FF04EDB2EBD103B0F0BD00BFEC
:1036F000BC090020F0B5A3B0044603F071F818B976
:10370000B4F86A30002B4BD0204603F0A8F8B4F888
:103710006A3000283DD1002B45D1574A12783AB97A
:10372000012384F87030B4F86E30A4F86A302CE0CD
:10373000204684F8703001AE03F096F8292537460C
:10374000204603F091F86B1E13F0FF0506F8010BFD
:10375000F6D1394620460DF13202FFF7C9FEEA23C1
:103760008DF83030A6238DF831302B46B4F86A102E
:103770000CA8CA1810F8015B92B201332244552BF1
:103780001574F6D15531A4F86A100023A4F86C30F2
:1037900003E0012806D0022840D0B4F86A3013B9FB
:1037A00023B0F0BD1BB3354800F042F90546082DA3
:1037B000F6D9B4F86C3094F870105A1C92B2A4F890
:1037C0006C20002954D0AA212046FFF775FFB4F8D9
:1037D0006C20B4F86A30083D9A42ADB2E7D30023BA
:1037E000A4F86C30A4F86A3084F87030D8E720462A
:1037F00084F8703003F038F80C25B4F86A6020467D
:10380000731CA4F86A3003F02FF8013D264415F02C
:10381000FF053074F1D1A4F86C50BEE7002BC2D183
:1038200084F87030204603F01FF8C82655217A2509
:10383000B4F86A3003F1120080B2E21811745A1C15
:1038400092B2224411749A1C92B222441174DA1C6E
:1038500092B2224411741A1D92B2224416745A1D57
:10386000063392B29BB2224483421574E5D15CE7E1
:103870002344197CA8E700BF2B0F0020BC090020BF
:1038800001EB410149009631A0F86E10704708B570
:1038900002F085FF0D23B0FBF3F080B208BDF8B550
:1038A0000446062600277D254FF47A71204600F055
:1038B0005FFD013DF8D187F00105EDB239462046A4
:1038C00000F0EAFC2946204600F034FD2946204657
:1038D00000F0F2FC2946204600F0F6FC294620467E
:1038E00000F0FAFC2946204600F0FEFC294620465E
:1038F00000F002FD2946204600F006FD294620463C
:1039000000F004FD2946204600F01CFD013E00D1D8
:10391000F8BD2F46C7E7000070B500250446012614
:1039200005724FF480610C30FDF7CEFA4FF48061E0
:1039300004F12000FDF7C8FA25652046A4F854508C
:1039400084F83450A56384F83C50256484F84450CE
:1039500084F84C60A4F8565000F0F6FA3146204640
:1039600000F06AFC3146204600F096FC29462046CD
:1039700000F0E0FC2946204600F09EFC2946204647
:1039800000F0A2FC2946204600F0A6FC294620466D
:1039900000F0AAFC2946204600F0AEFC294620464D
:1039A00000F0B2FC2946204600F0B0FC2946204633
:1039B00000F0C8FC2946204600F076FC2946204647
:1039C00000F002FC2946204600F006FC294620466D
:1039D00000F016FC2046FFF762FF024B20461D60F8
:1039E00070BD00BF240F00202DE9F8431E46037A66
:1039F00004460F469046B3B1002500F12009454525
:103A000009D0795D2EB932464846FDF7B3FA013543
:103A1000F5E7725DF8E7054D2B7823B92046FCF7F2
:103A2000ADFE01232B70BDE8F88300BF2B0F0020F3
:103A30002030FDF75EBA2030FDF72ABB0C30FDF7D1
:103A400027BB0000F8B50D4619461446069EFDF743
:103A50002BF9294B294AE91891421AD9E1189142C8
:103A600017D9274A2749A818884212D922448A42DE
:103A70000FD9254A2549A81888420AD922448A42E2
:103A800007D9234A2349A818884202D322448A42EC
:103A900030D21A4A334493420ED9194B194A33444F
:103AA000934209D9184B194A3344934204D9184B0D
:103AB000184A334493421DD2174A1848AB18834220
:103AC00018D9A318834215D9154B1649EF188F4200
:103AD00010D9E7188F420DD9324482420AD93344B3
:103AE0008B4207D90020104B1D60104B1C60104BFF
:103AF0001E60F8BD0420FCE700BC6AF7FF083D002B
:103B0000004FF7E6BF3B47034053F2F27F8D5B0067
:103B10008019D0CD00F36F06C0444FF7400D03006D
:103B2000406D12E6C0C62D00C0010020C401002077
:103B3000C80100200629F8B505460C4610D001F151
:103B4000FF3CDCF1000141EB0C0100F0B5FBA4F1FE
:103B5000020EDEF10001284641EB0E0100F0B4FB3D
:103B6000E11E4F424F413946284600F0B5FB201F69
:103B7000464246413146284600F0B6FB39462846C3
:103B800000F0AAFB31462846661F00F0ADFB7142EB
:103B90007141284600F0B0FB631E012B05D9A21F1E
:103BA00051422846514100F0B1FBE31F59422846DB
:103BB0005941BDE8F84000F0A7BB0000836B37B562
:103BC000027A013304468363002A00F09380036D78
:103BD000B3F5964F0DD3724B1A78511E042901D9B3
:103BE000072A04D1002120461970FFF7A3FF002304
:103BF000236545F6BF53A26B9A420AD9002394F875
:103C00004C10204681F00101A36384F84C1000F0B1
:103C100043FB04F12000FDF78DF9624DF8B9624BCA
:103C20001B78E3B1614B1A7842B1187094F84530B3
:103C300023B1012229785E48FCF7DEFD5D4B1A783E
:103C40004AB100221A7094F8453023B10122297834
:103C50005748FCF7D1FD00212046FCF7ADFD2B783D
:103C6000022B0CBF4FF470624FF4F062524B196894
:103C7000914229D300221A60494B1B7823BB236C45
:103C800013BB94F83C30FBB1484B1B78E3B9494B6C
:103C90001B78CBB994F8443094F845200133B3FB3A
:103CA000F2F102FB113384F84430234493F84610B8
:103CB0002046FFF73FFF94F844300122234493F855
:103CC00046103B48FCF798FD0C342046FDF732F9CE
:103CD00038B320460DF107020DF10601FDF798F902
:103CE0002B78013B062B1CD8DFE803F0131D363F71
:103CF000481B510031498B4213D990F84C10826314
:103D000081F0010180F84C1003B0BDE8304000F0B4
:103D1000C3BA9DF806102A48003918BF0121FFF7E1
:103D20007FFB03B030BD274B9DF806101B78003990
:103D300018BF012163B11C4B1B782BB19DF80720E4
:103D40002148FEF7A9F8ECE72048FEF721F8E8E75C
:103D50001F48FDF71DFDE4E79DF806101D480039DA
:103D600018BF012103F0BCF9DBE79DF806101A48E3
:103D7000003918BF012101F007F9D2E79DF80610BC
:103D80001648003918BF012100F0B6FEC9E79DF8BA
:103D900006101348003918BF012100F0FDFBC0E7F1
:103DA000280F0020290F00202B0F00201E0F0020BD
:103DB000BC0900202A0F0020240F00207FA9030047
:103DC000E8050020200F00206804002030040020B7
:103DD0004003002050140020D80F0020300F002096
:103DE000140A0020002310B580F845302E4B0446FD
:103DF0001B7823B1012380F8463080F845302B4BE7
:103E00001B7843B1022194F84530E218013382F85F
:103E1000461084F84530264B1B7843B1032194F8B3
:103E20004530E218013382F8461084F84530214BC2
:103E30001B7843B1042194F84530E218013382F82D
:103E4000461084F845301C4B1B7843B1052194F88B
:103E50004530E218013382F8461084F84530174B9C
:103E60001B7843B1072194F84530E218013382F8FA
:103E7000461084F8453094F84530012B0AD90123C7
:103E800084F83C30237A23B9204600F069F90123F5
:103E9000237210BD002384F83C30094B204619786A
:103EA000FFF748FEEEE700BF1700002016000020D5
:103EB0001C0000201A00002019000020180000201B
:103EC000280F002038B5054D0C462A788A4203D0C9
:103ED0000122026400F036FA2C7038BD1F0F00205A
:103EE00080F834107047002303657047006D7047F9
:103EF000B0F854300B80B0F8563013800023A0F88F
:103F00005430A0F85630704708B5082003F058FA2E
:103F100038B10448FCF76EFBBDE80840082003F008
:103F20005DBA08BDBC09002008B5202003F048FA9E
:103F300038B10448FCF708FCBDE80840202003F035
:103F40004DBA08BDBC0900202DE9F04F87B0684686
:103F500003F002FB01211D2003F0BAFE01217C4881
:103F600003F03AFB00230193019BB3F5007F02D2DB
:103F7000019B0133F7E74FF4C053ADF80030042341
:103F800041F203042026402740F203454FF0800A07
:103F90004FF4807B69466F488DF8033003F08BFA4D
:103FA000002003F00FFE01214FF4000003F09CFEFF
:103FB0004FF4407003F048F969466748ADF8006077
:103FC000ADF8024003F077FA69466348ADF8007037
:103FD000ADF8024003F06FFA69465F48ADF8025051
:103FE000ADF800A003F067FA69465B48ADF800B091
:103FF000ADF8024003F05FFAADF8007010274FF4FF
:10400000804969465348ADF8024003F054FA6946C6
:1040100050484FF00808ADF80070ADF8025003F0BA
:104020004AFA69464D48ADF80090ADF8024003F0F9
:1040300042FA69464848ADF80070ADF8025003F006
:104040003AFAADF802504FF4005569464248ADF8CF
:10405000008003F030FA69463E48ADF8006003F096
:104060002AFA69463D48ADF80050ADF8024003F029
:1040700022FA4FF400734FF4805769463648ADF882
:104080000030ADF8024003F016FA69463248ADF848
:104090000070ADF8024003F00EFA69462E48ADF804
:1040A0000050ADF8024003F006FA022301256946EC
:1040B0002948ADF80030ADF8024003F0FCF969463C
:1040C0002548ADF80050ADF8024003F0F4F9694618
:1040D0002048ADF800B0ADF8024003F0ECF96946B5
:1040E0001C48ADF800A0ADF8024003F0E4F96946C1
:1040F0001948ADF80090ADF8024003F0DCF94FF438
:10410000004369461448ADF80030ADF8024003F0B2
:10411000D2F92846032103F08FFA05210020CDF8BB
:10412000088003F089FA0DEB08000496ADF80C70D6
:104130008DF80E5003F0EEF84FF4006304A8ADF8CC
:1041400014308DF8165003F0E5F807B0BDE8F08F95
:104150000002300000080140000C01400010014046
:10416000092337B501240F258DF800301723684641
:104170008DF804308DF801408DF802508DF8034021
:1041800003F06CF801A88DF805408DF806508DF805
:10419000074003F063F803B030BD0000032307B508
:1041A0008DF8063010230029ADF8043008BF042331
:1041B000044801A98DF8073003F07DF903B05DF8DC
:1041C00004FB00BF000C01400A460248202103F016
:1041D000E0B900BF000C01400A460248402103F04C
:1041E000D8B900BF000C014008B58021034803F096
:1041F000BAF9431E5842584108BD00BF000C0140A7
:104200000A4602484FF4807103F0C3B9000C014024
:104210000A460248402103F0BCB900BF0008014033
:1042200008B51021034803F09EF9431E5842584137
:1042300008BD00BF000801400A4602484FF4804113
:1042400003F0A7B90010014008B51021034803F09E
:104250008AF9431E5842584108BD00BF000C014076
:1042600008B50821034803F07EF9431E584258411F
:1042700008BD00BF000C01400A460248102103F0AF
:1042800088B900BF000C01400A460248082103F02B
:1042900080B900BF000C01400A4602484FF40051AB
:1042A00003F077B9001001400A4602484FF400714C
:1042B00003F06FB9000C01400A4602484FF48051E8
:1042C00003F067B9000C01400A4602484FF4005160
:1042D00003F05FB9000C01400A460248022103F0D6
:1042E00058B900BF000C01400A460248012103F002
:1042F00050B900BF000C01400A4602484FF48071DB
:1043000003F047B900080140FFF7F6BF38B50C4687
:10431000074D0A4628464FF4805103F03AF92246E9
:104320002846BDE838404FF4005103F032B900BFD1
:10433000000C01400A4602484FF4804103F029B9BD
:10434000000C01400A4602484FF4004103F021B935
:10435000000C0140024B18460138FDD8704700BFE1
:10436000BFD4010040F60F6318460138FDD87047EE
:104370000C235943013908460138FDD8704700BF66
:1043800000BF00BF704738B5002504460570458062
:1043900033222946043005F0A3F8631D2046E56367
:1043A000A36338BD002303704380C36370470000DC
:1043B000438810B55B0004469BB2B9B9638060883E
:1043C00080F4AB4080F0770002F070FD88B9552290
:1043D000A36B01211A70F722A36B5A700F4B217047
:1043E000E3630F48BDE81040FFF76CBD43F00103E5
:1043F000E4E7608880F47F4080F05D0002F056FDC5
:1044000058B9FF22A36B01211A705D22A36B5A7069
:10441000024BE36302232370E3E710BD10000400A6
:10442000BC09002010B508480C46FBF74BFF030AF7
:1044300084F83200214684F831303322BDE8104040
:10444000024802F093B800BFBC090020C41200204B
:1044500010B508480C46FBF735FF030A84F8320014
:10446000214684F831303322BDE81040024802F082
:10447000ABB800BFBC090020C412002070B50446D0
:104480004388828F5B00404E9BB24380D00802F08D
:104490000702A56BB25C002971D043F00103638071
:1044A0002B5C1A432A54A38F5A1C92B2B2F5C07FD8
:1044B000A28704D9002323706380E3630FE00E3BDF
:1044C000022B2BD8608880F4AB4080F0770002F09C
:1044D000EDFC022804D82D4BE3630123237070BD4B
:1044E000608880F47F4080F05D0002F0DFFC0228ED
:1044F00003D8264BE3630223F0E7608880F4AA40E8
:1045000080F05D0002F0D2FC022807D8002120488C
:10451000FFF7D8FC1F4802F085F8CBE7A38FB3F56F
:10452000C07FDCD1E58F013DADB2E58755B92946A5
:104530001748FFF7C7FC174802F094F8257065800C
:10454000E563CCE7EB1E5D425D412571254615F81C
:10455000043B012B09D0022B0CD03322002128462A
:1045600004F0BEFF0023A387B9E729462046FFF7E2
:1045700059FFF2E729462046FFF76AFFEDE72B5C7B
:1045800023EA02028EE700BFA8D900081000040049
:10459000BC090020C41200200378013B012B01D884
:1045A000FFF76CBFFFF704BF10B5044640F2DC51C3
:1045B00002F0E2F84FF49662002104F1100004F0DA
:1045C0008FFF0023F0222046C4F8C034A4F8C4248E
:1045D00084F8C63410BD312A70B505460C460ED19C
:1045E00002F0DDF82F280CD904F1300614F8011F71
:1045F000284602F014F9B442F8D1002070BD04201E
:10460000FCE70520FAE7000073B50C460825094EC3
:10461000E3098DF807300122002330460DF1070130
:10462000013DFFF7E1F9640015F0FF05E4B2EFD1B9
:1046300002B070BDBC090020F8B5044602F0D0F805
:10464000B4F8C03430BB002B57D02C48FFF7F0F93A
:10465000002705460326082D4FD994F8C634002BB1
:104660003CD077212046FFF7CFFFB4F8C2340133A6
:10467000A4F8C234B4F8C224B4F8C034083D9A4255
:10468000ADB2E8D394F8C6349BB384F8C674C4F8CA
:10469000C064E0E7002BD8D1194A127862B901232F
:1046A00084F8C634B4F8C434A4F8C0340023A4F8A1
:1046B000C234B4F8C034C6E7302584F8C634B4F840
:1046C000C0642046731CA4F8C03402F0CDF8013D4C
:1046D000264415F0FF053074F1D1E7E7B4F8C23491
:1046E00020465A1CA4F8C2242344197CFFF78CFFEF
:1046F000C0E7C4F8C03484F8C634F8BDBC09002053
:104700002B0F002001EB4101890001F51671A0F883
:10471000C414704708B502F042F83023B0FBF3F040
:10472000C0B208BD014801F027BA00BFC412002082
:1047300038B53948FFF742FA384801F04BFA384BA0
:10474000384C1B782BB12378012B02D13648FEF769
:10475000D1FF364B364D1B785BB12378022B08D145
:104760002B7833B9334B1B78002B4AD03248FEF7F5
:104770000FFA324B1B782BB12378032B02D1304830
:1047800002F0FCFC2F4B1B782BB12378042B02D1B9
:104790002D4800F055FC2D4B1B782BB12378052BB1
:1047A00002D12B4800F0F0F92A4B1B782BB123786B
:1047B000072B02D12848FFF73FFF284B1B782BB16E
:1047C0002378062B21D1264800F02CFD2B785C3B6A
:1047D000DBB2082B0ED840F2411222FA03F3DB07BA
:1047E00002D52048FCF79CFD2B78602B02D11E4897
:1047F000FCF704FE237873B9BDE838401B48FCF78A
:104800005DBC1B48FDF73CF9B3E7154800F098FC88
:104810000028D8D1DAE738BDBC090020C412002036
:1048200017000020280F0020480900201600002053
:104830001C0F0020200F0020300500201C0000204D
:10484000E81400201A000020D010002019000020D9
:10485000800F002018000020540A00201B000020B8
:10486000E4110020D0010020FC0100200C020020F7
:10487000C803002008B5FFF755FFFFF759FFFCE715
:1048800008B52048FEF7ECF91F48FEF7D6FD1F4893
:10489000FDF772F91E48FDF7F6FA1E48FDF76CFFAA
:1048A0001D48FCF7EFFD1D48FDF790F81C4802F08D
:1048B0003BFB1C4802F01AFC1B4800F0E5F91B48C2
:1048C00000F06DFB1A48FFF75EFD1A48FFF76CFE1B
:1048D000194800F041F8194800F014F9184800F0A0
:1048E0001DFC1848FCF7A2FC1748FCF77FFD174891
:1048F000FCF7D3FB164800F0EFFCBDE80840154874
:10490000FFF70AB8E805002048090020300400201D
:10491000680400203005002040030020C803002068
:1049200050140020E8140020D80F0020D0100020E0
:10493000140A0020540A0020300F0020800F0020AD
:10494000E4110020D0010020FC0100200C02002016
:10495000C4120020BC09002038B500220025002325
:104960000446C0E90223057033222946103004F0C2
:10497000B7FD04F111032046A564636438BD00232C
:1049800030B5002400250370C0E90245836430BDC2
:10499000D0E90232DB1810B552410446E1B9C4E94E
:1049A0000232A0680021C0F313030D48584002F002
:1049B00099FAA0B9CD22636C01211A70F522636CBB
:1049C00008485A709022636C9A70074B2170A36458
:1049D000BDE81040FFF776BA43F00103DFE710BDF2
:1049E00059DF0C00BC0900201400060010B508486F
:1049F0000C46FBF767FC030A84F83200214684F872
:104A000031303322BDE81040024801F061BD00BFE3
:104A1000BC090020C412002070B5D0E9023204465F
:104A2000DB185241C0E90232B0F848202D4ED008C0
:104A300002F00702656CB25C00294ED043F001031E
:104A4000A3602B5C1A432A54B4F8483001339BB25C
:104A5000B3F5C07FA4F8483002D92046FFF78FFF96
:104A6000B4F84830123B9BB2042B0CD8A06800214C
:104A7000C0F313031C48584002F034FA032802D84C
:104A80001A4BA36470BDB4F84830B3F5C07FF9D1B8
:104A9000B4F84A10013989B2A4F84A1051B914483F
:104AA000FFF710FA134801F041FD2046BDE87040C1
:104AB000FFF765BF25464B1F5942594105F8101FA6
:104AC00029462046FFF792FF33220021284604F0B2
:104AD00007FD0023A4F84830D4E72B5C23EA020248
:104AE000B1E700BFB0D9000859DF0C001400060080
:104AF000BC090020C412002003780BB9FFF748BF9F
:104B0000FFF78ABF10B5044640F2DC5101F034FED5
:104B10003C22002104F1100004F0E2FC0022F0230A
:104B20002046C4E9132310BD312A70B505460C4652
:104B30000ED101F034FE2F280CD904F1300614F800
:104B4000011F284601F06BFEB442F8D1002070BD71
:104B50000420FCE70520FAE773B50C460825094E4A
:104B6000E3098DF807300122002330460DF10701DB
:104B7000013DFEF739FF640015F0FF05E4B2EFD107
:104B800002B070BDBC090020F8B5044601F028FE53
:104B9000B4F84C3040BB002B5ED03048FEF748FFE5
:104BA0004FF4807605462E4F082D55D994F8523093
:104BB000002B3DD05F212046FFF7CEFFB4F84E30EA
:104BC0000133A4F84E30B4F84E20B4F84C30083D10
:104BD0009A42ADB2E8D394F85230002B39D0032377
:104BE000A4F85260E364DFE7002BD6D11D4A1278A7
:104BF00062B90123A4F85230B4F85030A4F84C3014
:104C00000023A4F84E30B4F84C30C4E73025A4F8A3
:104C10005230B4F84C602046731CA4F84C3001F0BC
:104C200023FE013D264415F0FF053074F1D1E7E77E
:104C3000B4F84E3094F853105A1C92B2A4F84E2097
:104C400021B1F95C2046FFF787FFBCE72344197CBC
:104C5000F8E7E364A4F85230F8BD00BFBC090020B7
:104C6000B8D900082B0F002001EB4101490001F5E4
:104C70009671A0F85010704708B501F090FD3023F0
:104C8000B0FBF3F080B208BD38B500220025002348
:104C90000446C0E902230570DB222946103004F0E7
:104CA0001FFC064B2046C4F8F03004F11103A4F8B1
:104CB000F45084F8F650C4F8EC3038BD00000F27EB
:104CC000002330B500240025054AC0E902450370E1
:104CD000C0F8F020A0F8F43080F8F63030BD00BF06
:104CE00000000F27D0E90232DB1810B5524104460C
:104CF00021BBC4E90232A189A368124881F4AA4108
:104D0000584081F0750102F0EDF8022819D800230F
:104D10000D4A12F8010BD4F8EC10C8540133062BDD
:104D2000F7D104230121A4F8F43030232170A4F832
:104D3000F0300648BDE81040FFF7C4B843F0010367
:104D4000D7E710BDFF77FFF5C3D90008BC090020E5
:104D500010B508480C46FBF7B5FA030A84F8DA00E8
:104D6000214684F8D930DB22BDE81040024801F02A
:104D700063BB00BFBC090020C412002090F8F630CD
:104D8000072B14D005D85BB1032B0ED04FF4D8639A
:104D900008E00C2B0BD00F2BF8D14FF4D87301E0A7
:104DA0004FF44673A0F8F23070479023FAE74FF4BF
:104DB000B473F7E770B5D0E902320446DB1852410C
:104DC000C0E90232B0F8F020274ED00802F0070206
:104DD000D4F8EC50B25C002942D043F00103A36048
:104DE0002B5C1A432A54B4F8F03001339BB2B3F56C
:104DF000D86FA4F8F03002D92046FFF761FFB4F86D
:104E0000F030402B15D148F28902D4F8EC30DB7930
:104E100003F00F0384F8F63022FA03F3DB0705D41E
:104E20000423A4F8F4300223237070BD2046FFF75A
:104E3000A5FFB4F8F230B4F8F0209A42F5D101237E
:104E40002146D2081A4401F8103F0848D2B201F0B6
:104E5000C7FA0423A4F8F4300023A4F8F030E2E702
:104E60002B5C23EA0202BDE7BBD90008C412002074
:104E700070B5D0E902320446DB185241C0E9023273
:104E8000B0F8F0203C4ED00802F00702D4F8EC5005
:104E9000B25C00296BD043F00103A3602B5C1A4382
:104EA0002A54B4F8F03001339BB2B3F5D86FA4F8AC
:104EB000F03002D92046FFF703FFB4F8F0302E3B64
:104EC0009BB2042B12D8A189A3682C4881F4AA4173
:104ED000584081F0750102F005F8042806D8042333
:104EE000A4F8F4303023A4F8F03070BDB4F8F030FA
:104EF000402B09D1D4F8EC302046DB7903F00F03C6
:104F000084F8F630FFF73AFFB4F8F030B3F5D86F15
:104F1000EBD1B4F8F410013989B2A4F8F41099B9BE
:104F20001748FEF7CFFF174801F0B4FA2046FFF705
:104F3000C7FE94F8F630032B01D00F2BD5D12046B5
:104F4000BDE87040FFF7BCBE2546CB1E5942594113
:104F500005F8101F29462046FFF7FAFEDB22002144
:104F6000284604F0BDFA0023A4F8F030E1E72B5CFA
:104F700023EA020294E700BFBBD90008FF77FFF5E0
:104F8000BC090020C41200200378012B03D0022B9F
:104F900003D0FFF7A7BEFFF70DBFFFF769BF10B53E
:104FA000044640F2DC5101F0E7FBFA22002104F153
:104FB000100004F095FA00234FF470022046A4F884
:104FC0000A31C4F80C2184F8103110BD122AF8B54A
:104FD00005460E46144614D901F0E1FB844212D86E
:104FE000013C2846E1B201F01AFC0027FBB29C42CA
:104FF00007F1010709D933442846597801F00FFC1D
:10500000F4E70420F8BD0520FCE70020FAE70000E3
:1050100073B50C460825094EE3098DF807300122C7
:10502000002330460DF10701013DFEF7DDFC640071
:1050300015F0FF05E4B2EFD102B070BDBC0900204D
:10504000F8B5044601F0CCFBB4F80A5128BB002D9A
:1050500036D02848FEF7ECFC0546082D30D9B4F8C8
:105060000C3194F810115A1C92B2A4F80C210029AA
:105070003CD077212046FFF7CBFFB4F80C21B4F8E1
:105080000A31083D9A42ADB2E7D30023A4F80C31AF
:10509000A4F80A3184F8103112E0002DD9D1164B52
:1050A0001B7873B9012384F81031B4F80E31A4F8D9
:1050B0000A310023A4F80C31B4F80A31002BC8D10E
:1050C000F8BD204601F0D0FB074684F81051EBB242
:1050D000BB42B4F80A61ECD2731C2046A4F80A3132
:1050E00001F0C2FB264430740135F0E72344197CFB
:1050F000C0E700BFBC0900202B0F002001EB4101DD
:10510000890001F51671A0F80E11704708B501F07D
:1051100046FBD823B0FBF3F080B208BD10B50446BF
:105120004FF47A7101F028FBC822002104F110002D
:1051300004F0D6F9002248232046C4E9362310BDE6
:1051400008B5B0F8D8302BB901F04AFB003818BFC9
:10515000012008BD0120FCE7442A70B506460C4634
:105160000ED101F01CFB43280CD9651E433415F801
:10517000011F304601F053FBA542F8D1002070BD5D
:105180000420FCE70520FAE773B50C460825094E14
:10519000E3098DF807300122002330460DF10701A5
:1051A000013DFEF721FC640015F0FF05E4B2EFD1EC
:1051B00002B070BDBC09002001EB41014908483133
:1051C00096298ABF9623A0F8DC10A0F8DC3070473F
:1051D00008B501F0E4FA4423B0FBF3F0C0B208BD17
:1051E000012A08B50DD10B78012B0CBF0123002338
:1051F00080F8DF3003D106210348FBF7FDFA0020D9
:1052000000E0042008BD00BFBC09002010B5442206
:105210000446AA21103004F063F94423C4F8D830BE
:1052200010BD000090F8DF3070B5044623B10023B4
:1052300080F8DE30FFF7EAFFB4F8D85005B3244811
:10524000FEF7F6FB0546082D2FD9B4F8DA3094F8AE
:10525000DE105A1C92B2A4F8DA20B1B3AA2120467B
:10526000FFF792FFB4F8DA20B4F8D830083D9A423C
:10527000ADB2E8D30023C4F8D83084F8DE3014E0AF
:10528000204601F0ADFA60B1124B1B7873B90123CF
:1052900084F8DE30B4F8DC30A4F8D8300023A4F869
:1052A000DA30B4F8D830002BC9D170BD84F8DE50A4
:1052B00004F1540604F11005204601F0D5FA05F872
:1052C000010BB542F8D14423E6E72344197CC6E735
:1052D000BC0900202B0F002038B5044600254FF4F0
:1052E0008072002104F0FCF88022294684F80051E5
:1052F00084F8015104F5817004F0F2F8204684F836
:10530000825184F8835184F8845138BD1FB57022CE
:10531000E0238DF80E2082788DF80C308DF80F2068
:10532000002204230092012103AA8DF80D3001F020
:105330009CFD05B05DF804FB1FB57F22E0238DF8CE
:105340000A2082788DF808308DF80B200022052382
:105350008DF80C100092012102AA8DF8093001F09D
:1053600084FD05B05DF804FB2DE9F04F044687B0DD
:105370006B48FEF7B8FDE0238DF808300E238DF85A
:1053800009300123DFF89C918DF80A3099F800204C
:10539000DFF894B1002A08BF00238DF80B309BF88A
:1053A00000302BB19DF80B3043F002038DF80B3029
:1053B000DFF878A19AF800302BB19DF80B3043F05C
:1053C00004038DF80B30DFF8688198F800302BB1BA
:1053D0009DF80B3043F008038DF80B30554F3B78A8
:1053E0002BB19DF80B3043F010038DF80B30524E6B
:1053F00033782BB19DF80B3043F020038DF80B3040
:105400004E4D2B782BB19DF80B3063F07F038DF858
:105410000B304B4B42481B788DF80C30494B1B78B6
:105420008DF80D30FEF70AFB28B19DF80D3043F0E2
:1054300004038DF80D303A48FEF7FDFA28B19DF8C7
:105440000D3043F008038DF80D3099F80030002B33
:1054500048D03D48FEF71BFA8DF80E009BF800304F
:10546000002B49D0394B1B78002B3ED03848FDF734
:105470009DFA8DF80F003648FDF7A0FA8DF8100060
:105480009AF80030002B3CD0324801F0D5FE8DF860
:10549000110098F80030002B36D02F48FFF736FE69
:1054A0008DF812003B7893B32C48FFF7E5FB8DF89D
:1054B0001300337873B32A48FFF78AFE8DF814007F
:1054C0002B7853B32748FFF725F98DF815000023F3
:1054D0000121009320460E2302AA01F0C6FC07B06A
:1054E000BDE8F08F8DF80E30B8E70A231E488DF81E
:1054F0000F30FCF731FBC1E78DF80F308DF810301D
:10550000BEE78DF81130C4E78DF81230CAE78DF888
:105510001330CEE78DF81430D2E78DF81530D6E78A
:10552000BC09002017000020160000201C000020ED
:105530001A000020190000201B0000201800002085
:10554000280F00202B0F002048090020200F0020EA
:1055500030050020E8140020D0100020800F00202B
:10556000E4110020540A0020C8030020E02330B5D5
:10557000A5B08DF80C3000238DF80E3001230421E6
:10558000114C8DF80F300B1FDBB2E25C0B469033F1
:1055900001316B44C9B203F8842C002AF3D10B4DBE
:1055A000AC5C5318DBB234B190336B44013203F876
:1055B000844CD2B2F4E70121009403AA8DF80D3097
:1055C00001F053FC25B030BDC9D900081D000020F2
:1055D0002DE9F04F0C2A8346924608468FB003D837
:1055E00004200FB0BDE8F08F0B780793C3F30013CE
:1055F0008BF8833191F801808E7808F004030893CA
:1056000008F01003099308F020030A93322E08F0E3
:10561000400308F0020508F008090D93E0D8CC78A3
:10562000052C40F28580072C00F0A480062C00F0A9
:105630009E80A4F15C03DBB2092BD1D840F2D132B9
:1056400022FA03F313F0010FCAD087790F2FC7D8BE
:10565000C37990F80CC0BAF10F0F0B934379CDF8D2
:1056600030C0964A8CBF90F80FC04FF0800CBAF152
:10567000110F8CBF90F811E04FF0800E9B08BAF12B
:10568000150F417A1370827AC37A94BF8020407DCF
:10569000DDF81CA0CDE901C00C98CAF3C00A009047
:1056A000CDE903EA8648FBF705FB864B08F00108C5
:1056B00083F80080089B003D18BF0125003B18BF00
:1056C0000123814ADFF804821370B9F1000318BF87
:1056D00001237F4ADFF8FC911370099B7E4A003B4F
:1056E00018BF012389F800300D9B88F80050003B5B
:1056F00018BF012313700A9BA4F15C05003B18BF7F
:105700000123764AEDB2082D1370754B35D9652CFF
:1057100040F0A8800121117006221A70714B1C7094
:105720009BF88431002B41D06548FBF701FB3DE03D
:10573000012C02D118F0010F86E7022C02D1002DB6
:1057400083D14DE7032C05D108F00403002B7FF42F
:105750007CAF45E7042C04D1B9F1000F7FF475AF9D
:105760003EE7052C7FF471AF08F01003EEE708F078
:105770002003EBE708F04003E8E740F25112EA406B
:10578000D2076FD5012288F8002002221A70554BEB
:105790001C709BF8843113B14948FBF7C9FA602C9F
:1057A00004D1012202214648FBF726F8079B4E4A06
:1057B000DB433146C3F3C0134C481370FEF760F867
:1057C00031464B4801F030FD31464A48FFF796FC20
:1057D00031464948FFF748FA31464848FEF792FFFC
:1057E00031464748FFF7E8FC31464648FCF7BCF92C
:1057F00039464548FDF718FA39464448FCF766FB38
:105800000B994248FCF764FB39464148FCF738FBEA
:1058100039464048FBF7A2FF51462948FEF760FB96
:105820009BF8843133B1092D04D840F25133EB4059
:10583000DB0707D4234B1B78CBB10122114620484C
:10584000FAF7DAFF1E48FEF7CDFA092D34D840F2F8
:105850005130E840C04310F001002DD101238BF8F6
:105860008431BEE600221C701E4B1A709EE798F829
:10587000003013B101220221E1E7134B1B7813B171
:1058800001220321DBE7124B1B7813B10122042113
:10589000D5E799F8003013B101220521CFE70E4B6F
:1058A0001B7813B101220721C9E70C4B1B78002B91
:1058B000C8D001220621C2E7002092E61500002090
:1058C000BC090020170000201C000020160000204A
:1058D0001A00002019000020180000201B000020E2
:1058E000280F00201C0F0020200F00204809002056
:1058F000E8140020D0100020800F0020540A00205F
:10590000E4110020C80300203005002068040020B6
:105910003004002040030020082A13B5084614462E
:1059200012D9092AD0F8052014BF4B7AFF230D2C79
:1059300094BF1046D0F80A00D1F801100090034837
:10594000FEF780F802B010BD0420FBE7BC09002080
:1059500038B54B1E0C46062B63D8DFE803F0047DF8
:10596000112134744A003E48FCF71AF93D48FCF70F
:10597000B1FA3D48FBF79CFD3C4801F0EAFA0BE028
:105980003748FCF70DF93748FCF7A4FA3648FBF71F
:105990008FFD3748FDF79AF93648FFF791F90EE089
:1059A0002F48FCF7FDF82F48FCF794FA2E48FBF738
:1059B0007FFD2F48FDF78AF92C4801F0CAFA2E48DE
:1059C000FEF7DDFF11E02648FCF7EAF82548FCF772
:1059D00081FA2548FBF76CFD2548FDF777F9234848
:1059E00001F0B7FA2348FFF76BF92448FEF7DAFC19
:1059F00014E01B48FCF7D4F81A48FCF76BFA1A4875
:105A0000FBF756FD1A48FDF761F9184801F0A1FAB5
:105A10001848FFF755F91848FEF7B1FF1848FBF78B
:105A2000FDFB184D2C7044B1174B1B78A34204D0DA
:105A3000012221461548FAF7DFFE29781348BDE810
:105A40003840FEF777B80648FCF7AAF80548FCF797
:105A500041FA0548FBF72CFD0548FDF737F98BE7C0
:105A6000300400206804002040030020501400206F
:105A7000E8050020D80F0020300F0020140A002075
:105A80000C020020280F0020290F0020BC09002054
:105A900010B50446CAB12E4B09781B788B4222D030
:105AA000052914D9072934D0062934D0632914D004
:105AB000A1F15C03DBB2082B05D840F2511222FAA7
:105AC00003F3DB0729D4652934D004211BE0012925
:105AD0000BD1204B1B78002BF7D000221E4B1A70E5
