:020000040800F2
:100000000050002039770008357700083577000860
:1000100035770008357700083577000800000000C4
:10002000000000000000000000000000357700081C
:1000300035770008000000003577000835770008A4
:1000400035770008357700083577000835770008E0
:1000500035770008357700083577000835770008D0
:1000600035770008753000083577000835770008C7
:1000700035770008357700083577000835770008B0
:1000800035770008357700083577000835770008A0
:100090003577000835770008357700083577000890
:1000A0003577000835770008357700083577000880
:1000B0003577000835770008357700083577000870
:1000C0003577000835770008357700083577000860
:1000D00035770008755D0008216000083577000855
:1000E00035770008357700083577000800000000F4
:1000F0000000000000000000000000000000000000
:1001000000000000000000005FF808F10348044B05
:10011000834202D0034B03B118477047D000002040
:10012000D000002000000000054806490B1AD90F36
:1001300001EBA301491002D0034B03B118477047EC
:10014000D0000020D00000200000000010B5064CB8
:10015000237843B9FFF7DAFF044B13B10448AFF338
:1001600000800123237010BDD0000020000000009B
:10017000ACD9000808B5044B1BB104490448AFF3DF
:100180000080BDE80840CFE700000000D400002058
:10019000ACD90008A3F5803A704700BF154B002B7F
:1001A00008BF114B9D46FFF7F5FF00218B460F4618
:1001B0001148124A121A08F009FD0C4B002B00D00E
:1001C00098470B4B002B00D09847002000210400DB
:1001D0000D000B4808F020FC08F04EFC2000290020
:1001E00003F0C0FB08F01EFC000008000000000047
:1001F0000000000000000000D0000020E0170020F8
:100200004D8A000870B51F24104E114D31682846E4
:10021000E14011F0010118BF012103F051F80C4831
:1002200003F001F901210A4803F042F8084803F0FD
:10023000FAF80021064803F03BF8013CE6D2002121
:10024000BDE87040024803F03BB800BF8C010020BD
:100250000408002010B5074C0121204603F044F8A3
:10026000204603F0E0F82046BDE81040002103F0EE
:100270003BB800BF0408002010B50446FFF7C2FFDA
:100280001CB1BDE81040FFF7E5BF10BD70B50446D6
:10029000082540F2471626FA05F111F0010118BFB2
:1002A0000121204603F00CF8204603F0BCF80121A0
:1002B000204602F0FDFF204603F0B5F8002120465D
:1002C00002F0F6FF013DE6D20021204602F0F8FFE1
:1002D0000121204603F008F8204603F0A4F8112677
:1002E00000250121204602F0E3FF204603F09BF8A1
:1002F0003346112B06F1FF3606D02BB1204602F013
:10030000E7FFB0400543ADB20021204602F0D0FF28
:10031000204603F088F8731CE3D12046002102F048
:10032000E3FF05F07F03C5F3C315062D8EBF002044
:10033000034A505D18444010C0F1820080B270BD85
:10034000A29E000800232DE9F3418DF80730037ABF
:100350000446002B48D002F0E3FF474B05461A68DD
:10036000904241D0454E18603378002B3FD1002891
:1003700071D1DFF80C8198F80030EBB1414F3B7838
:10038000D3B93378C3B1BDB920461A2103F044F87C
:100390000121204602F0A8FF00BF00BF00BF294690
:1003A000204602F0A1FF2946204602F089FF0123E2
:1003B00088F8005035703B70236D334A0133236554
:1003C000136801331360B4F85430226C01339BB2CC
:1003D000A4F8543044F61F639A4284BF0023236478
:1003E000236C0BB10133236402B0BDE8F081002817
:1003F000BFD1244F254A0DF1070104F1200000F080
:1004000055FE3B7883F001033B709DF8073003B342
:100410000121DFF87C80204602F08EFF98F8003042
:10042000002BA6D000BF00BF00BF0121204602F074
:100430005BFF00BF00BF00BF0021204602F054FF59
:100440000021204602F03CFF002388F800303B707A
:100450008FE72946DDE70F4B1B78002B89D120461B
:1004600002F052FF094B01468DF807001A7804F19B
:100470000C0000F0CDFD7CE704000020730D00208F
:10048000B2010020080000206C0D0020650D002046
:10049000B3010020680D002010B50446012102F0D0
:1004A0009DFF094B1A68094B1A60FFF7ABFE01214B
:1004B000204602F0E7FE0122054B1A70204602F0AA
:1004C0002FFF0028FAD110BD980100208C010020D8
:1004D000B301002038B50C460546002102F07EFF2E
:1004E000094B20461A68094B1A60FFF7C5FE002128
:1004F000284602F0C7FE34B90122054B1A701A785B
:100500000AB100BFFBE738BD940100208C01002038
:10051000B2010020000000002DE9F04F61290546DE
:100520000C46DFF8E492DFF8E48285B004D00629B7
:1005300000F00E82B64B19706AB10021284602F015
:10054000DBFE284602F062FF2846012102F0D4FEBD
:10055000284602F05BFFD9F800B0AE4BAE4A5B44D0
:100560009342DFF8B8A2AE4B00F28280AD4ACAF8DF
:1005700000200122D8F800001A601E68A0F5C330E0
:10058000A03807F019FD012EA74B40F0838002220E
:100590001A6099A3D3E9002307F0B2FE08F040F8EF
:1005A000029007F0A9F908F00FFAC7B238462F7089
:1005B00008F040F9029B0146184608F085F84FF014
:1005C0008E4107F003FB07F019FD0022974B07F05F
:1005D000B7FB07F015F908F003F880B26880000156
:1005E000934B40EAC74747F0904758461F6007F0D3
:1005F000E3FC012E54D180A3D3E9002307F080FE51
:1006000008F00EF8834607F077F908F0DDF9C7B275
:1006100038462F7108F00EF90146584608F054F894
:100620004FF08E4107F0D2FA07F0E8FC7F4B002232
:1006300007F086FB07F0E4F807F0D2FF80B2E8800D
:1006400000017C4B40EAC74747F08047072C1F60FA
:100650002AD8002C00F07081A31E052B00F2BA806E
:10066000DFE813F0C5001C013D014A0133005801C9
:10067000714A72495A448A427FF678AF704A71498A
:100680005A448A4201D3704A71E7704ACAF800207E
:1006900002226FE701221A6059A3D3E900237BE706
:1006A00057A3D3E90023A9E7612C40F04B81684BA5
:1006B0001B78B3FBF6F640F29D37664BDFF898B136
:1006C00043EAC646654B664A0BE0664B0D271B881E
:1006D000DFF894B1B3FBF6F6644AF604644B46F0D7
:1006E0000056DAF80010DFF88CA1CDE90223CAF831
:1006F0000010FFF787FDFFF7ADFD029ACAF8002052
:10070000FFF780FDFFF7A6FD039BCAF80030FFF757
:1007100079FDFFF79FFD584BCAF80030FFF772FDD7
:10072000FFF798FD41F6D563CAF80030FFF76AFD80
:10073000FFF790FD284602F061FE01212846FFF7F1
:10074000C9FE4E4B1B7846EA433646F4C45646F083
:100750000206CAF80060FFF755FDFFF77BFD0E2388
:10076000CAF80030FFF74EFDFFF774FD444BCAF89E
:100770000030FFF747FDFFF76DFDCAF800B0FFF747
:1007800041FDFFF767FD3B23CAF80030FFF73AFD54
:10079000FFF760FD4FF48673CAF80030FFF732FDB3
:1007A000FFF758FDCAF80070FFF72CFDFFF752FD68
:1007B000344BCAF80030FFF725FDFFF74BFD062C40
:1007C00005D1009BC9F80030019BC8F8003005B086
:1007D000BDE8F08F2C4B0D271B88DFF8B0B0B3FBC2
:1007E000F6F6F6042A4B2B4A46F0100679E72A4B18
:1007F0001B885EE7AFF300800000000000704741F7
:100800000000000000705741C4010020C00100201A
:10081000710D002000BC6AF7FF083D009001002028
:100820009C01002021501F02A00100200000E03F99
:1008300094010020980100204053F2F27F8D5B006C
:100840008019D0CD00F36F0621505700215053007E
:1008500015000020700000206A559E0434AF078503
:1008600093A0EC29AE0100207A5596149380EE29CE
:10087000844A15808C010020B6EB0505CC010020D0
:10088000E93102000F000E00A60100207A55960CF7
:10089000942AA8005341EC29A401002095F8343093
:1008A000324A002B08BF4FF4D722314B18BF4FF408
:1008B000187743EA02032F4A08BF4FF4966712885D
:1008C000DFF8B4B0B2FBF6F62C4A47F00D0742EA67
:1008D000C64602F11E6202F54A22233201E7284B86
:1008E00040F2FD271B88DFF890B0B3FBF6F6254BEE
:1008F00043EAC646244BE6E6244B40F2AD171B887C
:10090000DFF874B0B3FBF6F61C4B214A43EAC64647
:10091000204BE6E6204B40F2BD371B88DFF858B08D
:10092000B3FBF6F6154B43EAC64603F1C14303F5A4
:10093000F62303F53173C6E62746A346234622462F
:100940002646CEE60027BB463B463A463E46C8E62C
:10095000D9F800300093D8F8003001930F4B1B6892
:10096000C9F80030C8F80030E6E500BF00AC070069
:1009700034034081B00100206A559E0470000020BD
:10098000AC0100203000002034B76700AA0100202D
:1009900013A1EC2934DB8300A8010020C80100204A
:1009A000014B890819707047CC01002030B51A2519
:1009B0006943164DC90929800E214A439DF81C4000
:1009C0001349D2099DF814000A80ECB10A2253435E
:1009D000104ADB09138013229DF80C3000EB001045
:1009E00053430D4ADB0913809DF810300B4A1B0955
:1009F000138060220A4BC00918809DF818305343B9
:100A0000084ADB09138030BD1322E0E7A60100206D
:100A1000A4010020B0010020AC010020AA010020A8
:100A2000A8010020AE010020F8B54F4E4F4B3168B1
:100A30004F4A0B44934204464E4B4F4D60D84F4AA9
:100A40001A6001222A6002221B684D494D4F0A603C
:100A50003B60FFF7D7FBFFF7FDFB4B4B1B78022BEF
:100A600060D14A4B2A681B88B3FBF2F2484B43EA39
:100A7000C243484A127843EA423343F4C45343F032
:100A800002033B60FFF7BEFBFFF7E4FB2B68306817
:100A9000012B55D107F090FA2FA3D3E9002307F0DB
:100AA0002FFC07F0BDFD054606F026FF07F08CFF82
:100AB000C6B23046267107F0BDFE0146284607F053
:100AC00003FE4FF08E4107F081F807F097FA324BA2
:100AD000002207F035F906F093FE07F081FD80B2A1
:100AE000E08000012D4B40EAC64040F08040186095
:100AF0002B4B1B7853B32046BDE8F840FFF7CCBC26
:100B0000284A29480A44824299D9284A0A4428494D
:100B10008A4201D3274A93E7274A1A6002222A60B1
:100B2000012291E7062B03BF244B2A681B884FF054
:100B3000005302BFB3FBF2F3DB0443F0005398E72A
:100B400007F03AFA06A3D3E90023A8E72046BDE858
:100B5000F8400121FFF7BEBC0000000000704741D3
:100B60000000000000705741C401002000BC6AF77B
:100B7000FF083D00900100209C01002021501F0231
:100B8000A00100208C010020700D0020A401002095
:100B900070000020CC0100200000E03F9801002000
:100BA000730D00204053F2F27F8D5B008019D0CD91
:100BB00000F36F062150570021505300AE01002072
:100BC00038B50278408800EBC23007F033FE07F0FA
:100BD00015FA00224FF07C5307F068FA104B0446D8
:100BE00018680D4607F0E8F902460B460AA1D1E95C
:100BF000000107F085FB07F013FD07F0FFF902463F
:100C00000B462046294607F051FA07F0E9FC00F5AB
:100C1000C330A03038BD00BF000000000070574155
:100C2000A00100200000000038B50279C08800EB68
:100C3000C23007F0FFFD07F0E1F900224FF07C53CE
:100C400007F034FA0E4B044618680D4607F0B4F965
:100C500002460B4608A1D1E9000107F051FB07F05D
:100C6000DFFC07F0CBF902460B462046294607F089
:100C70001DFA07F0B5FC38BD0000000000705741B8
:100C8000A00100200000000038B50F4B188807F0C5
:100C9000A3F90BA3D3E9002307F008FA0B4B044692
:100CA00018680D46000407F087F902460B462046F7
:100CB000294607F025FB07F093FC80B238BD00BF42
:100CC0000000000000705741A6010020A001002094
:100CD00038B50F4B188807F07FF90BA3D3E9002331
:100CE00007F0E4F90B4B044618680D46000407F0C2
:100CF00063F902460B462046294607F001FB07F040
:100D00006FFC80B238BD00BF00000000007057418A
:100D1000A4010020A001002038B50F4B188807F06F
:100D20005BF90BA3D3E9002307F0C0F90B4B044692
:100D300018680D46000407F03FF902460B462046AE
:100D4000294607F0DDFA07F04BFC80B238BD00BF42
:100D50000000000000705741B0010020A0010020F9
:100D600038B50F4B188807F037F90BA3D3E90023E8
:100D700007F09CF90B4B044618680D46000407F079
:100D80001BF902460B462046294607F0B9FA07F040
:100D900027FC80B238BD00BF000000000070574142
:100DA000AC010020A001002038B50F4B188807F0D7
:100DB00013F90BA3D3E9002307F078F90B4B044692
:100DC00018680D46000407F0F7F802460B46204667
:100DD000294607F095FA07F003FC80B238BD00BF42
:100DE0000000000000705741AA010020A00100206F
:100DF00038B50F4B188807F0EFF80BA3D3E90023A1
:100E000007F054F90B4B044618680D46000407F030
:100E1000D3F802460B462046294607F071FA07F040
:100E2000DFFB80B238BD00BF0000000000705741FA
:100E3000A8010020A001002038B50F4B188807F04A
:100E4000CBF80BA3D3E9002307F030F90B4B044692
:100E500018680D46000407F0AFF802460B4620461E
:100E6000294607F04DFA07F0BBFB80B238BD00BF42
:100E70000000000000705741AE010020A0010020DA
:100E800038B505462A4C2B49204603F05DFF28461D
:100E9000FFF7CAFE28490246204604F03BFA2846DE
:100EA000FFF78EFE25490246204604F033FA244B14
:100EB00020461A78234904F060FA2846FFF7E4FE3A
:100EC000214902B2204604F058FA2846FFF700FFF5
:100ED0001E4902B2204604F050FA2846FFF71CFFD4
:100EE0001B4902B2204604F048FA2846FFF738FFB3
:100EF000184902B2204604F040FA2846FFF754FF92
:100F0000154902B2204604F038FA2846FFF770FF70
:100F1000124902B2204604F030FA2846FFF78CFF4F
:100F20000F4902B22046BDE8384004F026BA00BF9F
:100F30000C110020D49D0008EF9D0008FD9D0008C5
:100F4000CC0100200B9E0008169E0008279E00087A
:100F50003C9E0008519E0008669E00087C9E00088A
:100F6000919E000838B50023CD0883810446C381D3
:100F7000C0E90133018003744374284606F014FC71
:100F80006060284606F010FCA060204638BDC1898C
:100F9000838989B29BB29942028805D1037C002BD8
:100FA0000CBF104600207047C189838989B29BB26B
:100FB00099423BBF8389C089C38980B22DBF808994
:100FC0008018C01A181A80B2904288BF002070475B
:100FD000C189838989B29BB29942024605D1037CBB
:100FE00003F0FF005BB110887047C189838989B223
:100FF0009BB2994204D28389C089181A80B2704783
:10100000C189838900889BB21844401AF6E7000022
:10101000037C30B51BB101234374002030BD8389AC
:101020004568C3F3CC03204CEB5C00292DD08189AB
:1010300001F00701615C0B438189C1F3CC016B5462
:1010400083898168C3F3CC03CB5C2AB3828902F025
:101050000702A25C13438289C2F3CC028B548389BA
:10106000028801339BB2838183899BB29A429CBFE1
:10107000002383818289C38992B29BB29A424FF046
:10108000010308BF03741846C8E7818901F007010E
:10109000615C23EA0103CFE7828902F00702A25CC8
:1010A00023EA0203D7E700BFA99E0008034670B5F4
:1010B0008489C089A4B280B2844204D11C7C04F02B
:1010C000FF00002C2ED0D8895C68C0F3CC00205CD7
:1010D000DE89DC89144DE44306F00706AE5D04F0BA
:1010E0000704304020410870D9899868C1F3CC01C9
:1010F000415CDC89D88904F00704C0432C5D00F012
:10110000070021400141117000211974DA89188803
:10111000013292B2DA81DA8992B290424FF0010044
:1011200098BFD98170BD00BFA99E00080346002268
:10113000407C5A74704710B54FF4967200210446F3
:1011400007F044FD00232046A4F82C31A4F82E31EA
:1011500084F8303110BD0000B0F82C312DE9F04199
:101160000446002B38D01D4801F038FD05461C4EC2
:101170001C4FDFF868800C2D2ED9B4F82E31404674
:10118000D90803F00702B25C635C0C3D134019BF41
:1011900000230C220C22394618BF134901F0FAFC37
:1011A00094F83031ADB20133DBB2272B84F8303103
:1011B00007D9B4F82E310133A4F82E31002384F876
:1011C0003031B4F82E21B4F82C319A42D3D3002315
:1011D000A4F82E31A4F82C31BDE8F08104080020D9
:1011E000E0A00008B4010020090000202DE9F74F1D
:1011F0008A46019200214FF49672044607F0E6FCFD
:101200000823A4F82C3100234FF00C092B4EA4F82E
:101210002E3184F830310199DAB291423ED9002161
:10122000CAB209FB02F206EB020CB25CA2B31AF8D6
:10123000030001319042F3D100254FF000409CF8AB
:1012400008B0E9B28B45B4F82C2125D9DFF87080BD
:1012500002F0070718F807804FEAD20EDCF8047096
:1012600014F80E1030EA07070CBF41EA080121EA22
:101270000801B2F5937F04F80E1005F1010506D9B7
:1012800000230420A4F82C3103B0BDE8F08F013214
:10129000A4F82C214008D4E70133BCE7B4F82C2192
:1012A000082AEDD0053292B20648A4F82C2106494E
:1012B00012B204F062F80020E6E700BFD09E0008FA
:1012C000E0A000080C110020B19E00080023A0F847
:1012D0002C31A0F82E3180F830317047002310B542
:1012E000038080F824308362064B821C03F12001C6
:1012F00053F8044B8B4242F8044BF9D11B881380FE
:1013000010BD00BFFBA0000830B50F4DC1EBC104FC
:101310002B195A78017C42749A782C5D8274DA78A1
:1013200021F00F01C2741A7904F00F0402755A7982
:101330009B794275827D23F00F0302F00F02214357
:1013400013430174837530BD1DA1000810B5044618
:101350001C4800F023FC1B4800F08CFC68B163784B
:10136000022B0BD0032B23D0012B28D1222216498C
:10137000144800F0CBFB0223637010BD204694F8A4
:101380002410FFF7C1FF22220E48A11C00F0BEFB73
:1013900094F82430052B07D1002384F824302378D7
:1013A000002BEAD10323E7E7013384F82430E4E794
:1013B00022220649034800F0A9FB0023DCE70023B2
:1013C0006370F2E7C803002047A1000869A1000884
:1013D00007B51D4A1278622A08D0642A18D05C2A00
:1013E0001CD103B05DF804EBFFF7B0BF017849B141
:1013F0000121164800F0BAFB144803B05DF804EB75
:1014000000F0CCBB114803B05DF804EB00F0AEBBBC
:10141000826A0F4901328A4203D8826203B05DF8C2
:1014200004FB002201A982620DF10602094801F0C5
:1014300015FEBDF80420BDF90630074907485208DB
:1014400004F0AAFAEAE700BF640D0020C8030020F8
:101450009798010004080020E8A000080C11002063
:10146000012A08B514D10B78012B0CBF01220022F0
:1014700002700BD1427822B9064A12785C2A00D158
:101480004370012202210448FFF746F8002000E0E3
:10149000042008BD640D0020040800200022026022
:1014A000027182604FF6FF72C2607047036813B525
:1014B0000133B3F5FA4F0446036035D31B48FEF7FA
:1014C000E5FE0023E18922798142A189236002F1AE
:1014D0000102A368D2B238BFE0818142034488BFD1
:1014E000A081052A2271A3601ED90622B3FBF2F364
:1014F000E1898DF80530080A8DF80110A1898DF871
:1015000000008DF80310080AC3F307218DF80200CC
:101510008DF804100648694603F0EEFB00232371A2
:10152000A3604FF6FF73E36002B010BD0408002013
:101530000C1100200023002210B500210446E0E831
:101540000223482207F042FB0023044A2046C4E954
:101550001D32E367A4F8803010BD00BF00000F27E4
:101560000023044A80F87F30A0F876308267A0F824
:101570007C30704700000F278188036810B504464F
:10158000294881F45541584081F0D70104F0D0FE3C
:10159000032817D8402384F87C30B4F8743003F261
:1015A000A51292B2B2F5107FA4F8763039D2A4F821
:1015B000782003F16C0292B2B2F5107F1CD2A4F82D
:1015C0007A201DE0A1882368184881F457415840CB
:1015D00081F0550104F0ACFE0328DBD9A188236813
:1015E000134881F4FE41584081F07D0104F0A0FED3
:1015F000032809D82023CEE7A3F5EA73A4F87A30AC
:1016000000220C4B1A6010BDA18823680A4881F49F
:10161000FB41584081F07F0104F08AFE0328E9D99C
:10162000F1E7A3F19B02C2E757D77FF7F5F75F7F9A
:10163000FD7DD55D6C0D00205F5DF5D5F0B5002614
:10164000714D1A449A4200F0DE801E7000EBD10406
:1016500001F00707247AEF5D3C40CF4307F007070E
:101660003C41E4011C7067B24C1CA4B2B4F5107F7D
:1016700024BFA1F23F218CB200EBD40104F0070C8F
:10168000097A15F80CC001EA0C016FEA040C0CF0A1
:10169000070C41FA0CF147EA8111671CBFB2B7F59C
:1016A000107F24BFA4F23F24A7B249B2197000EB07
:1016B000D70407F0070C247A15F80CC004EA0C04D0
:1016C0006FEA070C0CF0070C44FA0CF441EA4411E1
:1016D0007C1C1FFA84FCBCF5107F24BFA7F23F24BA
:1016E0001FFA84FC49B2197000EBDC040CF0070E01
:1016F000277A15F80E4027406FEA0C0404F007041F
:1017000027410CF101041FFA84FEBEF5107F28BFAB
:10171000ACF23F2441EA071128BF1FFA84FE49B208
:10172000197000EBDE040EF0070C277A15F80C4058
:1017300027406FEA0E0404F0070427410EF101046C
:101740001FFA84FCBCF5107F28BFAEF23F2441EAAB
:10175000C70128BF1FFA84FC49B2197000EBDC04F2
:101760000CF0070E277A15F80E4027406FEA0C049C
:1017700004F0070427410CF101041FFA84FEBEF5B2
:10178000107F28BFACF23F2441EA870128BF1FFA2F
:1017900084FE49B2197000EBDE040EF0070C277AC4
:1017A00015F80C4027406FEA0E0404F007042741A7
:1017B0000EF101041FFA84FCBCF5107F28BFAEF2C5
:1017C0003F2441EA470128BF1FFA84FC49B219703F
:1017D00000EBDC040CF0070E277A15F80E402740CA
:1017E0006FEA0C0404F0070427410F430CF10101D8
:1017F00089B2B1F5107F03F8017BFFF423AFACF29F
:101800003F2189B21EE7F0BD6EA2000880F87E106D
:101810007047000010B508480C46FEF737FD030A74
:1018200084F8223084F823002246BDE810402423A7
:101830000121024803F05EB8040800200C110020CA
:1018400073B50446B0F874009D4E04EBD00200F06E
:101850000705137A755D002950D02B431372D4E924
:101860000032DB18524100294BD1C4E9003294F810
:101870007F30002B48D12046FFF77EFEB4F874205D
:10188000B4F87A309A4270D194F87C3004F1510562
:1018900084F8503021222B462046B4F87810FFF708
:1018A000CDFE94F87C30402B40F0B48001A800F0CD
:1018B000F1F90DF107030DF10602294601A800F028
:1018C00017FA94F87E209DF806309A424AD10023F8
:1018D00094F8502084F87D3084F880309DF80730EB
:1018E0001A4384F850200A2B00F29080DFE803F0BE
:1018F00073647B8E8E8E2952528E520023EA05032A
:10190000ACE743F00103B0E7B4F8761001F23E23F0
:101910009BB2B3F5107F01F1020292B224BF8B1E7D
:101920009BB2B2F5107F24BFA1F23E2292B2934245
:1019300004D28342A2D88242A0D39CE78342FAD841
:1019400099E7B4F976205F495F4803F016FD204619
:1019500004F15001FFF75EFF022384F87F3000237B
:1019600084F88130002384F87C30B4F8743094F823
:101970007F1001339BB2B3F5107F28BF00230039DD
:1019800018BF01215148A4F8743002B0BDE870407E
:1019900001F04EBB94F87F30022BE3D1B4F97620EE
:1019A0004B49494803F0E9FC204604F15001FFF798
:1019B00031FF9DF80730D3E7B4F976204549424816
:1019C00003F0DBFC204604F15001FFF723FF012365
:1019D00084F87F30C6E794F87F30012BF7D1B4F953
:1019E00076203D49EBE794F87F30012BBAD1B4F96A
:1019F00076203A49344803F0C0FC204604F15001F7
:101A0000FFF708FF2046FFF7ABFDABE7B4F9762000
:101A10003349EFE7202B13D1B4F9762031492A4816
:101A200003F0ABFC204604F15001FFF7F3FE012365
:101A300084F87F30002384F87D3084F8803091E78B
:101A400094F87F3073B194F87D300133DBB20C2B06
:101A500084F87D3006D91C48012102F07BFF204626
:101A6000FFF77EFD94F87F30012B18D194F8803079
:101A70000121042B83BF202384F85030002301333D
:101A800097BFDBB284F8803084F8803084F850301F
:101A90000D48222304F1500202F02CFF62E7022BD2
:101AA0007FF460AF94F88130002B3FF45BAF2146A8
:101AB00043F04003204601F8503FFFF7ABFE51E7EB
:101AC0006EA200088BA100080C1100200408002061
:101AD000ABA10008CCA10008EDA1000811A20008EC
:101AE00036A200084FA2000810B5044640F26B3140
:101AF00004F049F85022002104F1100007F066F8C4
:101B00000022F0232046C4E9182310BD222A70B514
:101B100005460C460ED104F049F820280CD904F1F2
:101B2000210614F8011F284604F080F8B442F8D1C9
:101B3000002070BD0420FCE70520FAE773B50C46D1
:101B40000825094EE3098DF80730012200233046AD
:101B50000DF10701013D01F01DF8640015F0FF05CE
:101B6000E4B2EFD102B070BD0408002080F8671025
:101B700070470000084B10B51B780446622B07D154
:101B800021225F21103007F021F82123A4F86030D2
:101B90000023A4F8623010BD640D002090F8673077
:101BA00070B50446B0F8605053B305B32E4801F049
:101BB00015F80546082D22D9B4F8623094F866105D
:101BC0005A1C92B2A4F8622000294AD05F21204614
:101BD000FFF7B4FFB4F86220B4F86030083D9A42D1
:101BE000ADB2E7D30023236684F8663007E080F8BF
:101BF0006650FFF7BFFFB4F86030002BD6D170BD40
:101C0000002DD3D103F0F3FF0028F4D0174B1B783D
:101C100053B9012384F86630B4F86430A4F8603016
:101C20000023A4F86230E6E784F8665004F1100659
:101C300004F13105204604F01EF806F8010BB54208
:101C4000F8D12B460A4A02F1240152F8040B8A42C9
:101C500043F8040BF9D11188927819809A704823BF
:101C6000DCE72344197CB2E704080020730D002050
:101C700076A2000808B503F099FF2323B0FBF3F028
:101C800080B208BD01EB4101890001F51671A0F891
:101C90006410704770470000B1F5006F084610B53A
:101CA0000DD34FF4802340F675440549034201D11A
:101CB0005B08FBE7DA0A624350400842F6D110BDE8
:101CC00000F8FFFF10B54C780B78E400897804EB3E
:101CD000C32404EB51142146FFF7DEFF034B53F8F6
:101CE00020006040C0F3C72010BD00BFA0A20008C4
:101CF00073B515464A7B0E7B1C46930943EA86035F
:101D00008DF804300B7DC97C9200890022F03F02DF
:101D100001F03C01114341EA93119B008DF805103D
:101D200023F00F0301A98DF80630FFF7CBFF03095D
:101D300000F00F002B70207002B070BD187B02F015
:101D40000F0242EA0112D1B220F03F00124A40EAEB
:101D5000910030B5187312F81150587B32F81140C9
:101D600000F00F00AA0840EA811102F030000143A0
:101D70005973D97C02F00F0221F00F0111431A7D33
:101D8000D97402F00302A10A42EA851201F03C0173
:101D90000A431A7530BD00BFA0C2000870B5002309
:101DA000002500220446A826C0E902232946057022
:101DB0006422103006F00AFF32462946C4E91D5558
:101DC000C4E91F55C4E92155C4F88C5004F19000B2
:101DD00006F0FCFE3246294604F59C7006F0F6FE3D
:101DE0003246294604F5F07006F0F0FE32462946E8
:101DF00004F5227006F0EAFE2A22294604F54C700A
:101E000006F0E4FE204670BD002330B50024002516
:101E1000C0E91D33C0E90245037030BD2DE9F0472C
:101E20000B68D0F88070D0F8886007EB03080B6966
:101E3000C46F06EB030CE045C646A8BFE646E04586
:101E4000B4BFDFF8D4C0DFF8D4C04FEAD40300EB4E
:101E5000830304F00702D3F89050B5BF1CF802C00A
:101E60001CF802C00CEA05054CEA0505C3F89050C1
:101E70004D682F444D69BC462E44B742A8BFB446B6
:101E8000B742B4BF244E254ED3F83851B5BFB65C27
:101E9000B65C35403543C3F83851D0F884808D683E
:101EA0008F6908EB050AD0F88C50D3F8E06105EB98
:101EB0000709CA455746A8BF4F46CA45B5BFDFF810
:101EC0005890DFF8589019F8029019F80290B4BFB2
:101ED00009EA060649EA0606C3F8E061CE68C96960
:101EE00046440D44AE42B046A8BFA846AE42D3F821
:101EF00088120CDA084DAA5C0A40C3F88822013423
:101F0000C0E920ECC0E92278C467BDE8F087034D42
:101F1000AA5C0A43F1E700BF46C700084EC70008A5
:101F200070B5D1E9003283F0010588B0D11882F094
:101F300001062A443344CDE905120091741969461B
:101F4000CDE90324019402930793FFF767FF08B0DC
:101F500070BD0000002240F249111346F0B5264C36
:101F6000264E032B19D8DFE803F0021B2F3BCD10C0
:101F700001F007032435E75C50F825303B4018BFDB
:101F8000022300EBD20702F00705755D97F830C316
:101F900005EA0C0587F8305301320139E1D2F0BD72
:101FA000CD1001F007034E35E75C50F825303B407B
:101FB00018BF022300EBD20702F00705655D97F812
:101FC00030C345EA0C05E5E7CB10783301F007058F
:101FD00050F82330655D1D420CBF01230323D0E779
:101FE000CD10A23501F00707E75D50F825502F42CC
:101FF00008BF0123DEE700BF4EC7000846C7000840
:102000004FF0FF3230B5104D481E01F1260410F894
:10201000013F5340DBB235F81330C2F3072253407F
:1020200084421A46F3D1DB4391F827009AB2DBB21F
:10203000984207D191F82830B3EB122F0CBF012042
:10204000002030BD0020FCE746C500082DE9F04126
:10205000884614464B1E8149054698B008F1520047
:1020600013F8016F11F8012B984282EA06021A70E8
:10207000F6D15422002103A806F0A8FD80270022F3
:10208000774E06EB4200B2F5257F52DB00264FF07B
:1020900080084027C5E92066C5E92266EE6718ABCF
:1020A00003EBE60313F8542C06F0070328FA03F1B8
:1020B000114227FA03F314BF01210021134214BF78
:1020C000012300230291284601A902360193FFF75C
:1020D00027FFB6F5257FE2D1FFF73CFF292200213B
:1020E000204606F073FD40F24912012710465D4E6E
:1020F00005EBE20102F0070E91F830C316F80E105E
:10210000831A1CEA010F09D0D90814F801C003F0A2
:10211000070307FA03F343EA0C036354013AE7D2D7
:1021200021462846FFF76CFF18B0BDE8F0811A463B
:10213000A9E7D31018F80310CB070ED590F800C00C
:102140000CF160030DEB030C43781CF854EC27FAF8
:1021500003F343EA0E030CF8543C8B070ED590F8BA
:1021600002C00CF160030DEB030CC3781CF854ECB7
:1021700027FA03F343EA0E030CF8543C4B070ED541
:1021800090F804C00CF160030DEB030C43791CF8CC
:1021900054EC27FA03F343EA0E030CF8543C0B0704
:1021A0000ED590F806C00CF160030DEB030CC3795B
:1021B0001CF854EC27FA03F343EA0E030CF8543CE2
:1021C000131DB3F5257F00F10800B0DAC8060ED55F
:1021D00016F8130006EB4303603068445B7810F890
:1021E00054CC27FA03F343EA0C0300F8543C8B0663
:1021F0000FD5531D16F8130006EB430360306844F7
:102200005B7810F854CC27FA03F343EA0C0300F888
:10221000543C48060FD5931D16F8130006EB4303F4
:10222000603068445B7810F854CC27FA03F343EA33
:102230000C0300F8543C0B060ED5D31D16F81310F2
:1022400006EB4303603169445B7811F8540C27FABC
:1022500003F3034301F8543C083212E766C7000851
:10226000C1C700084EC7000810B508480C46FEF765
:102270000DF8030A84F82A00214684F829302B221D
:10228000BDE81040024802F0A1BA00BF04080020D7
:102290000C11002070B5D0E90232DB185241C0E9C0
:1022A0000232426F044600EBD206307C8CB002F062
:1022B000070591B343F00103A3601A4B5B5D18431C
:1022C0000132B2F5487F3074626702D92046FFF7C9
:1022D0009BFD636FB3F5257F1BD104F110052946E3
:1022E000204601AAFFF7B2FEA8B101210E4800F076
:1022F0009FFE204601A9FFF7B7FF0E2200212846C6
:1023000006F064FC00236367022323704FF4165326
:10231000A3670CB070BD2070FBE7044B5B5D1840F9
:10232000CEE700BF5EC700080408002056C70008BB
:1023300010B507480C46FDF7A9FF030A6073214654
:1023400023730E22BDE81040024802F06BBA00BFB2
:10235000040800200C110020D0E90232DB1870B50F
:102360005241044671B90025C4E90232A0682946E9
:1023700080F0AA3003F0DCFF022806D8244B1D6051
:10238000257070BD43F00103EDE7A068294620F0F9
:102390007F432048584003F0CBFF02280DD81E4948
:1023A0001E4802F0D1FC5322294604F1100006F029
:1023B0000DFC012365672370E3E7A068294620F040
:1023C0007F431748584003F0B3FF05460028D8D193
:1023D0001449124802F0B8FC0121134800F028FE0D
:1023E000124A04F1100613683146236153682046EF
:1023F00063619368A361FFF79BFF0E222946304675
:1024000006F0E4FB4FF416536567A3670223D2E797
:102410006C0D002050765500A0C400080C1100205F
:1024200068B4AA00C9C4000804080020F1C4000868
:10243000F8B5D0E90232DB185241C0E90232426FEE
:10244000044600EBD206307C02F00705002900F0BC
:102450008B8043F00103A360454B5B5D1843013261
:10246000B2F5487F3074626702D92046FFF7CCFC92
:10247000A189A3683F4881F42A41584081F0AA010C
:1024800003F056FF01280DD83B493C4802F05CFCA4
:1024900000213B4800F0CCFD384802F00DFA002343
:1024A0002370F8BD636F5C2B04D8636F602B22D060
:1024B00000230FE0A068002120F07F4331485840FE
:1024C00003F036FF0328F0D84FF416536022C4E916
:1024D0001D230123A56F013DA56725BB2A49274878
:1024E00002F032FC2946264800F0A2FD234802F003
:1024F000C5F92570D5E701256FF07F46214FA0680B
:1025000026FA05F3034027FA05F00021584003F0AE
:102510000FFF032803D8636F5B1B6367C8E70135B0
:10252000042DECD1C4E7626F602ABAD104F1100522
:10253000A3B15523637641F22D6329462046638378
:10254000FFF7F6FE01210E4800F072FD0E22002179
:10255000284606F03BFB00236367A2E70C222946CE
:10256000064802F05FF9EDE7084B5B5D184076E73F
:102570005EC700085E13AAAAFEC400080C11002062
:102580000408002068B4AA001EC5000856C7000849
:102590000378012B04D0022B04D02BB9FFF7DCBE4B
:1025A000FFF778BEFFF744BF704710B504464FF4FD
:1025B0007A7103F0E8FA5A22002104F1100006F0C3
:1025C00005FB00234FF470122046A4F86A30E2663F
:1025D00084F8703010BD0000292A70B505460C46FD
:1025E00019D103F0E3FA292806D802B20B490C48A6
:1025F00002F0C3FE052070BD0021284603F016FB43
:10260000661E283416F8011F284603F00FFBA64269
:10261000F8D10020EFE70420EDE700BFE9CC000887
:102620000C1100200C2A70B505460C4619D103F098
:10263000BDFA0C2806D802B20B490C4802F09DFEE8
:10264000052070BD0121284603F0F0FA661E0B3408
:1026500016F8011F284603F0E9FAA642F8D1002037
:10266000EFE70420EDE700BF09CD00080C110020C2
:1026700010B5044603F09AFA024628B905480649FF
:1026800002F07BFE052010BD0221204603F0CEFAA9
:102690000020F8E70C11002027CD00082DE9F04FAD
:1026A000144697B00D465322002101A806F08EFA79
:1026B00053220021204606F089FA0022691E1046A6
:1026C00015464FF0010EDFF890C103461646284626
:1026D000002711F8018F0EFA07F518EA050F14BF4D
:1026E0000125002505EB030903442B44DB0709F012
:1026F00001090CD506F007031CF803A016AB03EB89
:10270000D60313F854BC4AEA0B0A03F854ACB9F1E7
:10271000000F0ED0731C0DF1580909EBD30903F01B
:10272000070319F854AC1CF8033043EA0A0309F80C
:10273000543C0137082F034606F1020679D11032C6
:10274000B2F5287FC1D100230120444901EB4302A7
:10275000B3F5257F71D216AD05EBD30616F8545CA0
:1027600016F9546C002E08DA1778567814F807C05A
:1027700000FA06F646EA0C06E6556E0608D5977886
:10278000D67814F807C000FA06F646EA0C06E655B5
:10279000AF0608D51779567914F807C000FA06F67F
:1027A00046EA0C06E655EE0608D59779D67914F870
:1027B00007C000FA06F646EA0C06E6551E1DB6F5F9
:1027C000257F02F1080236D22A0709D511F81670C2
:1027D00001EB46067278E65D00FA02F23243E255FA
:1027E0006F070AD55A1D11F8126001EB42025278A8
:1027F000A75D00FA02F23A43A255AE070AD59A1D28
:1028000011F8126001EB42025278A75D00FA02F261
:102810003A43A255EA070AD5DA1D11F8125001EB26
:1028200042025278665D00FA02F232436255083382
:102830008CE728464FE733468AE70949631E52343E
:1028400013F8010F11F8012B9C4282EA00021A7062
:10285000F6D117B0BDE8F08F44CD0008A7CD000831
:102860004CCD0008F7B50E46082401250B4F35EA7C
:1028700006030CBF0123002301228DF807303846E0
:1028800000230DF10701013C00F084F96D0014F004
:10289000FF04EDB2EBD103B0F0BD00BF040800208F
:1028A000F0B5A3B0044603F0A2F918B9B4F86A3041
:1028B000002B4BD0204603F0D9F9B4F86A30002839
:1028C0003DD1002B45D1574A12783AB9012384F8FB
:1028D0007030B4F86E30A4F86A302CE0204684F8EA
:1028E000703001AE03F0C7F929253746204603F0C2
:1028F000C2F96B1E13F0FF0506F8010BF6D139463D
:1029000020460DF13202FFF7C9FEEA238DF8303080
:10291000A6238DF831302B46B4F86A100CA8CA18DB
:1029200010F8015B92B201332244552B1574F6D195
:102930005531A4F86A100023A4F86C3003E0012894
:1029400006D0022840D0B4F86A3013B923B0F0BDE5
:102950001BB3354800F042F90546082DF6D9B4F806
:102960006C3094F870105A1C92B2A4F86C200029B4
:1029700054D0AA212046FFF775FFB4F86C20B4F8B4
:102980006A30083D9A42ADB2E7D30023A4F86C3018
:10299000A4F86A3084F87030D8E7204684F87030A4
:1029A00003F069F90C25B4F86A602046731CA4F89A
:1029B0006A3003F060F9013D264415F0FF053074DC
:1029C000F1D1A4F86C50BEE7002BC2D184F870306E
:1029D000204603F050F9C82655217A25B4F86A300C
:1029E00003F1120080B2E21811745A1C92B2224410
:1029F00011749A1C92B222441174DA1C92B22244CD
:102A000011741A1D92B2224416745A1D063392B2E2
:102A10009BB2224483421574E5D15CE72344197CC0
:102A2000A8E700BF730D00200408002001EB41015E
:102A300049009631A0F86E10704708B503F0B6F85B
:102A40000D23B0FBF3F080B208BDF8B504460626AE
:102A500000277D254FF47A71204600F0DDFC013D12
:102A6000F8D187F00105EDB23946204600F074FC3C
:102A70002946204600F0B2FC2946204600F07CFCA6
:102A80002946204600F080FC2946204600F084FCC0
:102A90002946204600F088FC2946204600F08CFCA0
:102AA0002946204600F090FC2946204600F08EFC86
:102AB0002946204600F09AFC013E00D1F8BD2F4681
:102AC000C7E7000070B500250446012605724FF4E3
:102AD00080610C30FEF746FA4FF4806104F120006B
:102AE000FEF740FA25652046A4F8545084F8345087
:102AF000A56384F83C50256484F8445084F84C6005
:102B0000A4F8565000F0C6FA3146204600F0F4FB17
:102B10003146204600F020FC2946204600F05EFCAD
:102B20002946204600F028FC2946204600F02CFCCF
:102B30002946204600F030FC2946204600F034FCAF
:102B40002946204600F038FC2946204600F03CFC8F
:102B50002946204600F03AFC2946204600F046FC73
:102B60002946204600F000FC2946204600F0A0FB44
:102B70002946204600F0A4FB2946204600F0B4FB7D
:102B80002046FFF762FF024B20461D6070BD00BF6C
:102B90006C0D00202DE9F8431E46037A04460F46CB
:102BA0009046B3B1002500F12009454509D0795D73
:102BB0002EB932464846FEF72BFA0135F5E7725D2D
:102BC000F8E7054D2B7823B92046FDF765FC012376
:102BD0002B70BDE8F88300BF730D00202030FEF796
:102BE000D6B92030FEF7A2BA0C30FEF79FBA00002B
:102BF000F8B50D4619461446069EFDF7D1FE294B41
:102C0000294AE91891421AD9E118914217D9274A5D
:102C10002749A818884212D922448A420FD9254A46
:102C20002549A81888420AD922448A4207D9234A4A
:102C30002349A818884202D322448A4230D21A4A31
:102C4000334493420ED9194B194A3344934209D95C
:102C5000184B194A3344934204D9184B184A334449
:102C600093421DD2174A1848AB18834218D9A318AB
:102C7000834215D9154B1649EF188F4210D9E71822
:102C80008F420DD9324482420AD933448B4207D94C
:102C90000020104B1D60104B1C60104B1E60F8BDD7
:102CA0000420FCE700BC6AF7FF083D00004FF7E690
:102CB000BF3B47034053F2F27F8D5B008019D0CDBC
:102CC00000F36F06C0444FF7400D0300406D12E65D
:102CD000C0C62D00C0010020C4010020C801002092
:102CE000F8B50D4604464B1E5942594100F044FBCD
:102CF000AA1E51425141204600F046FBE91E4F42B8
:102D00004F413946204600F047FB281F46424641C6
:102D10003146204600F048FB3946204600F03CFB97
:102D2000314620466E1F00F03FFB71422046714144
:102D3000AF1F00F041FB79422046794100F046FB8D
:102D4000A5F1070CDCF100012046BDE8F84041EB9D
:102D50000C0100F039BB0000836B37B5027A0133F8
:102D600004468363002A00F08E80036DB3F5964F0E
:102D70000DD3684B1A78511E042901D9072A04D1B2
:102D8000002120461970FFF7ABFF0023236542F2B4
:102D90001073A26B9A4203D10021204600F0DCFAA6
:102DA000A26B5D4B9A4205D9002301212046A36303
:102DB00000F0D2FA04F12000FEF70AF9574DF8B9F5
:102DC000574B1B78E3B1574B1A7842B1187094F8FF
:102DD000453023B1012229785348FDF79DFB534B21
:102DE0001A784AB100221A7094F8453023B10122B2
:102DF00029784D48FDF790FB00212046FDF76AFB3E
:102E00002B78022B0CBF4FF470624FF4F062484BEA
:102E10001968914221D300221A603E4B1B78E3B916
:102E2000236CD3B994F83C30BBB13E4B1B78A3B9AB
:102E30003E4B1B788BB994F8443094F8452001330D
:102E4000B3FBF2F102FB113384F844302344012236
:102E500093F846103448FDF75FFB0C342046FEF72C
:102E6000B7F838B320460DF107020DF10601FEF761
:102E70001DF92B78013B062B1CD8DFE803F0131D4E
:102E8000262F381B41002B498B4213D990F84C1048
:102E9000826381F0010180F84C1003B0BDE830403E
:102EA00000F05ABA9DF806102348003918BF0121D6
:102EB000FFF76EFB03B030BD9DF806101F480039C8
:102EC00018BF0121FEF7BCFCF4E79DF806101C4872
:102ED000003918BF012103F04FFBEBE79DF8061006
:102EE0001848003918BF012101F014F9E2E79DF8F4
:102EF00006101548003918BF012100F07FFED9E700
:102F00009DF806101148003918BF012100F0C8FBD8
:102F1000D0E700BF700D0020FF520700710D0020A8
:102F2000730D0020660D002004080020720D0020A3
:102F30006C0D00207FA90300300400204003002016
:102F400098120020200E0020780D00205C08002040
:102F5000002310B580F845302E4B04461B7823B172
:102F6000012380F8463080F845302B4B1B7843B165
:102F7000022194F84530E218013382F8461084F8B3
:102F80004530264B1B7843B1032194F84530E218B5
:102F9000013382F8461084F84530214B1B7843B149
:102FA000042194F84530E218013382F8461084F881
:102FB00045301C4B1B7843B1052194F84530E2188D
:102FC000013382F8461084F84530174B1B7843B123
:102FD000072194F84530E218013382F8461084F84E
:102FE000453094F84530012B0AD9012384F83C3050
:102FF000237A23B9204600F033F90123237210BD50
:10300000002384F83C30094B20461978FFF768FE0E
:10301000EEE700BF17000020160000201C00002073
:103020001A0000201900002018000020700D002058
:1030300038B5054D0C462A788A4203D00122026435
:1030400000F0D4F92C7038BD670D002080F83410E2
:103050007047002303657047006D7047B0F8543027
:103060000B80B0F8563013800023A0F85430A0F83D
:103070005630704708B5082003F0EEFB38B104481D
:10308000FDF760F9BDE80840082003F0F3BB08BD78
:10309000040800202DE9FF47684603F0A9FC012140
:1030A0001D2004F061F80121694803F0E1FC0023D0
:1030B0000193019BB3F5007F02D2019B0133F7E737
:1030C0004FF4C053ADF800300423694661488DF8D1
:1030D000033003F03CFC002003F0C0FF01214FF45B
:1030E000000004F04DF84FF4407041F2030403F087
:1030F000F7FA202369465848ADF80030ADF8024091
:1031000003F025FC402340F203454FF080094FF4C3
:10311000807A4FF4804869464F48ADF80030ADF8EA
:10312000024003F014FC69464B48ADF80250ADF87C
:10313000009003F00CFC69464748ADF800A0ADF8DC
:10314000024003F004FC69464448ADF80080ADF845
:10315000024003F0FCFB1023082769463E48ADF807
:103160000030ADF8025003F0F2FBADF802504FF41E
:10317000005569463848ADF8007003F0E8FB694631
:103180003648ADF80050ADF8024003F0E0FB4FF4D4
:1031900000734FF4805669462F48ADF80030ADF803
:1031A000024003F0D4FB69462B48ADF80060ADF84F
:1031B000024003F0CCFB69462748ADF80050ADF85B
:1031C000024003F0C4FB0223012569462248ADF802
:1031D0000030ADF8024003F0BAFB69461E48ADF876
:1031E0000050ADF8024003F0B2FB69461948ADF853
:1031F00000A0ADF8024003F0AAFB69461548ADF8FF
:103200000090ADF8024003F0A2FB69461248ADF809
:103210000080ADF8024003F09AFB4FF4004369468A
:103220000D48ADF80030ADF8024003F090FB0321EB
:10323000284603F04DFC0DEB07000297ADF80C603B
:103240008DF80E5003F0B2FA04B0BDE8F08700BF6D
:103250000002300000080140000C01400010014055
:10326000092307B50F228DF80430012301A88DF83A
:1032700005308DF806208DF8073003F03BFA03B0D7
:103280005DF804FB032307B58DF8063010230029F1
:10329000ADF8043008BF0423044801A98DF80730B5
:1032A00003F055FB03B05DF804FB00BF000C0140C8
:1032B0000A460248202103F0B8BB00BF000C0140C1
:1032C0000A460248402103F0B0BB00BF000C014099
:1032D00008B58021034803F092FB431E5842584131
:1032E00008BD00BF000C01400A4602484FF480713F
:1032F00003F09BBB000C01400A4602484FF480419A
:1033000003F093BB0010014008B51021034803F0FF
:1033100076FB431E5842584108BD00BF000C0140D7
:1033200008B50821034803F06AFB431E5842584180
:1033300008BD00BF000C01400A460248102103F0FE
:1033400074BB00BF000C01400A460248082103F08C
:103350006CBB00BF000C01400A4602484FF400510C
:1033600003F063BB001001400A4602484FF40071AD
:1033700003F05BBB000C01400A4602484FF4805149
:1033800003F053BB000C01400A4602484FF40051C1
:1033900003F04BBB000C01400A460248022103F037
:1033A00044BB00BF000C01400A460248012103F063
:1033B0003CBB00BF000C01400A4602484FF480713C
:1033C00003F033BB00080140FFF7F6BF0A4602488E
:1033D000802103F02ABB00BF000801400A460248D2
:1033E0004FF4804103F021BB000C01400A46024823
:1033F0004FF4004103F019BB000C0140024B18468A
:103400000138FDD8704700BFBFD4010040F60F63FC
:1034100018460138FDD870470C2359430139084636
:103420000138FDD8704700BF00BF00BF704738B5F6
:10343000002504460570458033222946043005F0F6
:10344000C5FB631D2046E563A36338BD00230370FD
:103450004380C36370470000438810B55B00044697
:103460009BB2D9B96380608880F4AB4080F077006C
:1034700002F042FFA8B91749174801F065FC552230
:10348000A36B01211A70F722A36B5A70134B2170A2
:10349000E3631348BDE81040FFF7CABD43F00103E2
:1034A000E0E7608880F47F4080F05D0002F024FF58
:1034B00078B90C49084801F047FCFF22A36B0121B1
:1034C0001A705D22A36B5A70044BE36302232370CE
:1034D000DFE710BDCFD200080C110020100004005F
:1034E00004080020F4D2000810B508480C46FCF788
:1034F000CDFE030A84F83200214684F831303322AD
:10350000BDE81040024801F05BBB00BF040800208A
:103510000C11002010B508480C46FCF7B7FE030A52
:1035200084F83200214684F831303322BDE810405F
:10353000024801F073BB00BF040800200C110020FA
:1035400070B504464388828F5B004D4E9BB243802A
:10355000D00802F00702A56BB25C002900F08B8056
:1035600043F0010363802B5C1A432A54A38F5A1C37
:1035700092B2B2F5C07FA28704D900232370638082
:10358000E36316E00E3B022B40D8608880F4AB402A
:1035900080F0770002F0B0FE02280BD8A28F3949E4
:1035A000103A394812B201F0E8FE384BE3630123C8
:1035B000237070BD608880F47F4080F05D0002F071
:1035C0009BFE02280AD8A28F3149103A2E4812B227
:1035D00001F0D3FE2D4BE3630223E9E7608880F41A
:1035E000AA4080F05D0002F087FE02280ED8A28F6C
:1035F0002849103A12B2244801F0BFFE00212648A3
:10360000FFF716FD204801F037FBB6E7A38FB3F5AF
:10361000C07FCED1E58F013DADB2E58775B91F49B9
:10362000194801F091FB29461B48FFF701FD164898
:1036300001F042FB25706580E563BAE7EB1E5D4251
:103640005D412571254615F8043B012B09D0022B5D
:103650000CD033220021284605F0B8FA0023A387B6
:10366000A7E729462046FFF73FFFF2E72946204615
:10367000FFF750FFEDE72B5C23EA020275E700BF7E
:1036800091D3000815D300080C110020100004008D
:1036900037D3000855D300080408002070D3000871
:1036A0000378013B012B01D8FFF74ABFFFF7D4BED7
:1036B00010B5044640F2DC5102F065FA4FF4966210
:1036C000002104F1100005F081FA0023F0222046C9
:1036D000C4F8C034A4F8C42484F8C63410BD312A18
:1036E00070B505460C460ED102F060FA2F280CD9B1
:1036F00004F1300614F8011F284602F097FAB4428C
:10370000F8D1002070BD0420FCE70520FAE7000096
:1037100073B50C460825094EE3098DF807300122E0
:10372000002330460DF10701013DFFF733FA640035
:1037300015F0FF05E4B2EFD102B070BD040800201F
:10374000F8B5044602F053FAB4F8C03430BB002B8D
:1037500057D02C48FFF742FA002705460326082DCC
:103760004FD994F8C634002B3CD077212046FFF780
:10377000CFFFB4F8C2340133A4F8C234B4F8C22481
:10378000B4F8C034083D9A42ADB2E8D394F8C634D8
:103790009BB384F8C674C4F8C064E0E7002BD8D1AA
:1037A000194A127862B9012384F8C634B4F8C434D3
:1037B000A4F8C0340023A4F8C234B4F8C034C6E777
:1037C000302584F8C634B4F8C0642046731CA4F8CD
:1037D000C03402F050FA013D264415F0FF05307464
:1037E000F1D1E7E7B4F8C23420465A1CA4F8C22449
:1037F0002344197CFFF78CFFC0E7C4F8C03484F879
:10380000C634F8BD04080020730D002001EB41010F
:10381000890001F51671A0F8C414704708B502F0CC
:10382000C5F93023B0FBF3F0C0B208BD014800F089
:103830009FBF00BF0C11002038B53548FFF78CFA48
:10384000344801F0C9FD344B344C1B782BB123783C
:10385000012B02D13248FFF723F8324B324D1B784F
:103860003BB12378022B04D12B7813B92F48FEF7F4
:1038700095F92F4B1B782BB12378032B02D12D48C0
:1038800002F0C8FE2C4B1B782BB12378042B02D1FD
:103890002A4800F09BFC2A4B1B782BB12378052B80
:1038A00002D1284800F0F2F9274B1B782BB123787E
:1038B000072B02D12548FFF743FF254B1B782BB17F
:1038C0002378062B1DD1234800F072FD2B785C3B3A
:1038D000DBB2082B0ED840F2411222FA03F3DB07C9
:1038E00002D51D48FDF774FD2B78602B02D11B48D3
:1038F000FDF7DCFD237853B9BDE838401848FDF7E3
:103900002BBC144800F0E2FC0028DCD1DEE738BD17
:10391000040800200C11002017000020700D00206A
:103920009007002016000020640D0020C80300202E
:103930001C000020301300201A000020180F002067
:1039400019000020C80D0020180000209C0800204D
:103950001B0000202C100020D0010020FC010020C2
:103960000C02002008B5FFF761FFFFF765FFFCE7D9
:1039700008B51C48FEF712FA1B48FEF716FE1B4856
:10398000FDF7D8FD1A48FEF7AFF81A4802F001FD1E
:10399000194802F0F7FD194800F0F8F9184800F04E
:1039A000C4FB1848FFF743FD1748FFF781FE17488F
:1039B00000F03CF8164800F027F9164800F074FCB7
:1039C0001548FDF78BFC1548FDF768FD1448FDF719
:1039D000B2FB144800F046FDBDE808401248FFF76E
:1039E00071B800BF30040020900700204003002081
:1039F000C80300209812002030130020200E002061
:103A0000180F00205C0800209C080020780D002082
:103A1000C80D00202C100020D0010020FC01002047
:103A20000C0200200C1100200408002038B50022F0
:103A3000002500230446C0E90223057033222946ED
:103A4000103005F0C3F804F111032046A564636447
:103A500038BD002330B5002400250370C0E90245BD
:103A6000836430BDD0E90232DB1810B55241044600
:103A700001BBC4E90232A0680021C0F313030F4860
:103A8000584002F055FCC0B90D490E4801F05CF9F0
:103A9000CD22636C01211A70F522636C0A485A70BA
:103AA0009022636C9A70094B2170A364BDE81040AA
:103AB000FFF7BEBA43F00103DBE710BD59DF0C008E
:103AC00099D300080C1100200408002014000600FF
:103AD00010B508480C46FCF7D9FB030A84F83200FD
:103AE000214684F831303322BDE81040024801F00D
:103AF00019B800BF040800200C11002070B5D0E9EF
:103B000002320446DB185241C0E90232B0F84820C4
:103B1000334ED00802F00702656CB25C00295BD01E
:103B200043F00103A3602B5C1A432A54B4F84830D5
:103B300001339BB2B3F5C07FA4F8483002D92046C8
:103B4000FFF787FFB4F84830123B9BB2042B14D820
:103B5000A0680021C0F313032248584002F0E8FB9C
:103B600003280AD8B4F848201F49143A1F4812B253
:103B700001F003FC1E4BA36470BDB4F84830B3F5EC
:103B8000C07FF9D1B4F84A50013DADB2A4F84A5013
:103B90007DB91849154801F0D7F829461648FFF7AE
:103BA00047FA124800F0ECFF2046BDE87040FFF7EE
:103BB00050BF26466B1F5D425D4106F8105F3146DF
:103BC0002046FFF785FF33220021304604F0FEFF38
:103BD0000023A4F84830CFE72B5C23EA0202A4E7D5
:103BE000F6D3000859DF0C00B4D300080C110020F4
:103BF00014000600D4D300080408002003780BB991
:103C0000FFF730BFFFF77ABF10B5044640F2DC5132
:103C100001F0B9FF3C22002104F1100004F0D6FFAE
:103C20000022F0232046C4E9132310BD312A70B5C9
:103C300005460C460ED101F0B9FF2F280CD904F12E
:103C4000300614F8011F284601F0F0FFB442F8D105
:103C5000002070BD0420FCE70520FAE773B50C4690
:103C60000825094EE3098DF807300122002330466C
:103C70000DF10701013DFEF78DFF640015F0FF0512
:103C8000E4B2EFD102B070BD04080020F8B50446DC
:103C900001F0ADFFB4F84C3040BB002B5ED0304893
:103CA000FEF79CFF4FF4807605462E4F082D55D920
:103CB00094F85230002B3DD05F212046FFF7CEFF15
:103CC000B4F84E300133A4F84E30B4F84E20B4F8B6
:103CD0004C30083D9A42ADB2E8D394F85230002BF4
:103CE00039D00323A4F85260E364DFE7002BD6D178
:103CF0001D4A127862B90123A4F85230B4F850304A
:103D0000A4F84C300023A4F84E30B4F84C30C4E78B
:103D10003025A4F85230B4F84C602046731CA4F847
:103D20004C3001F0A8FF013D264415F0FF0530742A
:103D3000F1D1E7E7B4F84E3094F853105A1C92B220
:103D4000A4F84E2021B1F95C2046FFF787FFBCE7BD
:103D50002344197CF8E7E364A4F85230F8BD00BFAF
:103D600004080020FED30008730D002001EB410180
:103D7000490001F59671A0F85010704708B501F0A0
:103D800015FF3023B0FBF3F080B208BD38B5002238
:103D9000002500230446C0E902230570DB222946E2
:103DA000103004F013FF064B2046C4F8F03004F145
:103DB0001103A4F8F45084F8F650C4F8EC3038BD80
:103DC00000000F27002330B500240025054AC0E974
:103DD00002450370C0F8F020A0F8F43080F8F63007
:103DE00030BD00BF00000F27D0E90232DB1810B54C
:103DF0005241044641BBC4E90232A189A368144878
:103E000081F4AA41584081F0750102F091FA02282C
:103E10001DD81049104800F097FF00230F4A12F8F0
:103E2000010BD4F8EC10C8540133062BF7D104234E
:103E30000121A4F8F43030232170A4F8F0300848B0
:103E4000BDE81040FFF7F4B843F00103D3E710BD1D
:103E5000FF77FFF501D400080C110020E9D4000819
:103E60000408002010B508480C46FCF70FFA030AB6
:103E700084F8DA00214684F8D930DB22BDE810400E
:103E8000024800F003BE00BF040800200C1100200F
:103E900010B590F8F6300446072B20D005D87BB13A
:103EA000032B16D04FF4D86310E00C2B1ED00F2B31
:103EB000F8D10F490F4800F047FF4FF4D87305E0E1
:103EC0000D490C4800F040FF4FF44673A4F8F2305F
:103ED00010BD0A49074800F037FF9023F6E708496C
:103EE000044800F031FF4FF4B473EFE70549F7E7FA
:103EF00080D400080C1100201BD4000834D4000822
:103F00004DD4000867D4000870B5D0E902320446E9
:103F1000DB185241C0E90232B0F8F0202A4ED00836
:103F200002F00702D4F8EC50B25C002948D043F00C
:103F30000103A3602B5C1A432A54B4F8F030013318
:103F40009BB2B3F5D86FA4F8F03002D92046FFF742
:103F500039FFB4F8F030402B1BD148F28902D4F875
:103F6000EC30DB7903F00F0384F8F63022FA03F328
:103F7000DB0705D40423A4F8F4300223237070BDBA
:103F80002046FFF785FF94F8F6201049104801F00D
:103F9000F4F9B4F8F230B4F8F0209A42EFD10123EA
:103FA0002146D2081A4401F8103F0948D2B200F065
:103FB00041FD0423A4F8F4300023A4F8F030DCE73A
:103FC0002B5C23EA0202B7E7E1D400089BD4000887
:103FD0000C11002070B5D0E902320446DB185241C2
:103FE000C0E90232B0F8F020434ED00802F00702D8
:103FF000D4F8EC50B25C00297AD043F00103A360FE
:104000002B5C1A432A54B4F8F03001339BB2B3F559
:10401000D86FA4F8F03002D92046FFF7D3FEB4F8E9
:10402000F0302E3B9BB2042B16D8A189A3683348ED
:1040300081F4AA41584081F0750102F079F9042811
:104040000AD82F492F4800F07FFE0423A4F8F4304B
:104050003023A4F8F03070BDB4F8F030402B0FD10D
:10406000D4F8EC302046DB7903F00F0384F8F63007
:10407000FFF70EFF94F8F6202349224801F07DF95E
:10408000B4F8F030B3F5D86FE5D1B4F8F450013D91
:10409000ADB2A4F8F450C5B91C491A4800F054FE5A
:1040A00029461B48FEF7C4FF164800F01DFD2046B8
:1040B000FFF788FE94F8F630032B01D00F2BCAD1FE
:1040C0002046BDE87040FFF77DBE2646EB1E5D42F0
:1040D0005D4106F8105F31462046FFF7C3FEDB2244
:1040E0000021304604F072FD0023A4F8F030E1E72F
:1040F0002B5C23EA020285E7E1D40008FF77FFF595
:10410000A7D400080C1100209BD40008C0D40008DC
:10411000040800200378012B03D0022B03D0FFF703
:1041200063BEFFF7F1BEFFF755BF10B5044640F27E
:10413000DC5101F028FDFA22002104F1100004F006
:1041400045FD00234FF470022046A4F80A31C4F85C
:104150000C2184F8103110BD122AF8B505460E4620
:10416000144614D901F022FD844212D8013C28469D
:10417000E1B201F05BFD0027FBB29C4207F10107B1
:1041800009D933442846597801F050FDF4E704205A
:10419000F8BD0520FCE70020FAE7000073B50C46E7
:1041A0000825094EE3098DF8073001220023304627
:1041B0000DF10701013DFEF7EDFC640015F0FF0570
:1041C000E4B2EFD102B070BD04080020F8B5044697
:1041D00001F00DFDB4F80A5128BB002D36D0284857
:1041E000FEF7FCFC0546082D30D9B4F80C3194F8E4
:1041F00010115A1C92B2A4F80C2100293CD077214E
:104200002046FFF7CBFFB4F80C21B4F80A31083D83
:104210009A42ADB2E7D30023A4F80C31A4F80A31D6
:1042200084F8103112E0002DD9D1164B1B7873B9E8
:10423000012384F81031B4F80E31A4F80A310023B8
:10424000A4F80C31B4F80A31002BC8D1F8BD2046CF
:1042500001F011FD074684F81051EBB2BB42B4F8EF
:104260000A61ECD2731C2046A4F80A3101F003FD68
:10427000264430740135F0E72344197CC0E700BFC1
:1042800004080020730D002001EB4101890001F5B5
:104290001671A0F80E11704708B501F087FCD823FD
:1042A000B0FBF3F080B208BD10B504464FF47A714C
:1042B00001F069FCC822002104F1100004F086FC22
:1042C000002248232046C4E9362310BD08B5B0F8C3
:1042D000D8302BB901F08BFC003818BF012008BD85
:1042E0000120FCE7442A70B506460C460ED101F0C9
:1042F0005DFC43280CD9651E433415F8011F304678
:1043000001F094FCA542F8D1002070BD0420FCE728
:104310000520FAE773B50C460825094EE3098DF828
:1043200007300122002330460DF10701013DFEF761
:1043300031FC640015F0FF05E4B2EFD102B070BDAE
:104340000408002001EB41014908483196298ABF41
:104350009623A0F8DC10A0F8DC30704708B501F017
:1043600025FC4423B0FBF3F0C0B208BD012A08B518
:104370000DD10B78012B0CBF0123002380F8DF3017
:1043800003D106210348FCF7C7F8002000E0042011
:1043900008BD00BF0408002010B544220446AA212D
:1043A000103004F013FC4423C4F8D83010BD0000D2
:1043B00090F8DF3070B5044623B1002380F8DE307A
:1043C000FFF7EAFFB4F8D85005B32448FEF706FC1F
:1043D0000546082D2FD9B4F8DA3094F8DE105A1CAF
:1043E00092B2A4F8DA20B1B3AA212046FFF792FFD7
:1043F000B4F8DA20B4F8D830083D9A42ADB2E8D328
:104400000023C4F8D83084F8DE3014E0204601F0F0
:10441000EEFB60B1124B1B7873B9012384F8DE30D8
:10442000B4F8DC30A4F8D8300023A4F8DA30B4F8BB
:10443000D830002BC9D170BD84F8DE5004F1540689
:1044400004F11005204601F016FC05F8010BB542F9
:10445000F8D14423E6E72344197CC6E7040800208A
:10446000730D002038B5044600254FF480720021FA
:1044700004F0ACFB8022294684F8005184F80151F5
:1044800004F5817004F0A2FB204684F8825184F880
:10449000835184F8845138BD1FB57022E0238DF814
:1044A0000E2082788DF80C308DF80F200022042326
:1044B0000092012103AA8DF80D3001F0DEFE05B057
:1044C0005DF804FB1FB57F22E0238DF80A20827877
:1044D0008DF808308DF80B20002205238DF80C1084
:1044E0000092012102AA8DF8093001F0C6FE05B044
:1044F0005DF804FB2DE9F04F044687B06448FEF7F1
:10450000A8FDE0238DF808300E238DF80930012333
:10451000DFF880918DF80A3099F80020DFF878B143
:10452000002A08BF00238DF80B309BF800302BB118
:104530009DF80B3043F002038DF80B30DFF85CA1DF
:104540009AF800302BB19DF80B3043F004038DF83E
:104550000B30DFF84C8198F800302BB19DF80B3010
:1045600043F008038DF80B304E4F3B782BB19DF88C
:104570000B3043F010038DF80B304B4E33782BB1DA
:104580009DF80B3043F020038DF80B30474D2B780E
:104590002BB19DF80B3063F07F038DF80B30444B4B
:1045A0003B481B788DF80C30424B1B788DF80D3052
:1045B000FEF71AFB28B19DF80D3043F004038DF887
:1045C0000D303348FEF70DFB28B19DF80D3043F058
:1045D00008038DF80D3099F80030002B40D0364894
:1045E000FEF72BFA8DF80E009BF80030002B3AD026
:1045F0000A2332488DF80F30FDF73CFB8DF8100090
:104600009AF80030A3B32E4802F062F88DF811003A
:1046100098F800307BB32B48FFF73EFE8DF8120070
:104620003B785BB32848FFF7A9FB8DF8130033787C
:104630003BB32648FFF792FE8DF814002B781BB38E
:104640002348FFF7EBF88DF81500002301210093B4
:1046500020460E2302AA01F010FE07B0BDE8F08F3D
:104660008DF80E30C0E78DF80F308DF81030C7E7A9
:104670008DF81130CCE78DF81230D1E78DF813307A
:10468000D5E78DF81430D9E78DF81530DDE700BF98
:104690000408002017000020160000201C00002045
:1046A0001A000020190000201B0000201800002024
:1046B000700D0020730D002090070020C80300201B
:1046C00030130020180F0020C80D00202C100020EF
:1046D0009C080020E02330B5A5B08DF80C300023F5
:1046E0008DF80E3001230421114C8DF80F300B1F73
:1046F000DBB2E25C0B46903301316B44C9B203F884
:10470000842C002AF3D10B4DAC5C5318DBB234B1CE
:1047100090336B44013203F8844CD2B2F4E70121A8
:10472000009403AA8DF80D3001F0A7FD25B030BD2F
:1047300063D700081D000020082A13B50846144658
:1047400012D9092AD0F8052014BF4B7AFF230D2C6B
:1047500094BF1046D0F80A00D1F801100090034829
:10476000FEF746FA02B010BD0420FBE70408002063
:1047700010B504464FF4E132012101F039FD204625
:10478000BDE810404FF41652032101F031BD7FB552
:1047900005460E461446B2B1E0238DF80C30D31C0A
:1047A0008DF80D3080238DF80E3000230121009309
:1047B00003AA032301F061FD012123463246284666
:1047C000009101F05AFD04B070BD000030B5134BEC
:1047D00091B01B78012B1FD8114B1B78E3B1E0235C
:1047E0008DF80C30102300248DF80E30E5B2EB1C50
:1047F000AA42DBB206D90D5D40336B4403F8345C4A
:104800000134F3E7D31C0022DBB20092012103AA9A
:104810008DF80D3001F031FD11B030BD700D00206C
:104820001700002030B5134B89B01B78012B1FD81F
:10483000114B1B78E3B1E0238DF80C3011230024D9
:104840008DF80E30E5B2EB1CAA42DBB206D90D5D45
:1048500020336B4403F8145C0134F3E7D31C0022CB
:10486000DBB20092012103AA8DF80D3001F005FDA5
:1048700009B030BD700D0020170000201FB50C4B93
:104880001B78012B11D80B4B1B7873B11222E0233C
:104890008DF80E2000228DF80C30032300920121A8
:1048A00003AA8DF80D3001F0E8FC05B05DF804FBBB
:1048B000700D0020170000201FB50C4B1B78012B3A
:1048C00011D80B4B1B7873B11322E0238DF80E2007
:1048D00000228DF80C3003230092012103AA8DF8E9
:1048E0000D3001F0CAFC05B05DF804FB700D00202E
:1048F0001700002030B50D4614498DB00C7814F027
:10490000FD0121D1124C2478F4B1E024002D8DF862
:10491000084014BF1A2418248DF80A40CDB2EC1CAC
:10492000AB42E4B206D9555C30346C4404F8285CE0
:104930000131F3E700220333DBB20092012102AA26
:104940008DF8093001F099FC0DB030BD700D0020DC
:10495000160000201FB50E4B1B7813F0FD0213D17B
:104960000C4B1B7883B1E023002914BF1B211921B4
:104970008DF80C3003238DF80E100092012103AA4C
:104980008DF80D3001F079FC05B05DF804FB00BF37
:10499000700D00201600002030B5144BA5B01B7818
:1049A000032B00D0FBB9124B1B78E3B1E0238DF849
:1049B0000C30202300248DF80E30E5B2EB1CAA4207
:1049C000DBB206D90D5D90336B4403F8845C01348F
:1049D000F3E7D31C0022DBB20092012103AA8DF879
:1049E0000D3001F04AFC25B030BD00BF700D002035
:1049F0001C0000201FB50D4B1B78032B00D08BB97A
:104A00000B4B1B7873B12122E0238DF80E2000227E
:104A10008DF80C3003230092012103AA8DF80D308C
:104A200001F02BFC05B05DF804FB00BF700D002009
:104A30001C00002030B5134BA1B01B7813F0FB0312
:104A40001ED1114C2478DCB1E0248DF808403024CC
:104A50008DF80A40DDB2EC1CAA42E4B206D9CD5C66
:104A600080346C4404F8785C0133F3E7D31C0022F3
:104A7000DBB20092012102AA8DF8093001F0FDFBA2
:104A800021B030BD700D00201A00002030B5144B4D
:104A9000C3B01B7813F0FB031FD1124C2478E4B190
:104AA000E0248DF80C4031248DF80E40DDB2EC1C72
:104AB000AA42E4B207D9CD5C04F584746C4404F8CE
:104AC000FC5C0133F2E7D31C0022DBB2009201212F
:104AD00003AA8DF80D3001F0D0FB43B030BD00BF0C
:104AE000700D00201A0000201FB50C4B1B7813F02E
:104AF000FB0210D10A4B1B786BB1E02332218DF8F9
:104B00000C3003238DF80E100092012103AA8DF8BA
:104B10000D3001F0B2FB05B05DF804FB700D002014
:104B20001A00002030B5144BA5B01B78052B00D01F
:104B3000FBB9124B1B78E3B1E0238DF80C30402316
:104B400000248DF80E30E5B2EB1CAA42DBB206D988
:104B50000D5D90336B4403F8845C0134F3E7D31CA0
:104B60000022DBB20092012103AA8DF80D3001F082
:104B700084FB25B030BD00BF700D0020190000205F
:104B80001FB50D4B1B78052B00D08BB90B4B1B7839
:104B900073B14122E0238DF80E2000228DF80C30F5
:104BA00003230092012103AA8DF80D3001F065FB6B
:104BB00005B05DF804FB00BF700D00201900002057
:104BC00030B5144BA5B01B78072B00D0FBB9124BA6
:104BD0001B78E3B1E0238DF80C30452300248DF8D9
:104BE0000E30E5B2EB1CAA42DBB206D90D5D903364
:104BF0006B4403F8845C0134F3E7D31C0022DBB27E
:104C00000092012103AA8DF80D3001F036FB25B08A
:104C100030BD00BF700D00201800002030B5144BCF
:104C2000A5B01B78072B00D0FBB9124B1B78E3B162
:104C3000E0238DF80C30462300248DF80E30E5B2C9
:104C4000EB1CAA42DBB206D90D5D90336B4403F82E
:104C5000845C0134F3E7D31C0022DBB20092012113
:104C600003AA8DF80D3001F008FB25B030BD00BF60
:104C7000700D0020180000201FB50D4B1B78072B6E
:104C800000D08BB90B4B1B7873B14922E0238DF810
:104C90000E2000228DF80C3003230092012103AA7C
:104CA0008DF80D3001F0E9FA05B05DF804FB00BFA6
:104CB000700D0020180000201FB50D4B1B78072B2E
:104CC00000D08BB90B4B1B7873B14822E0238DF8D1
:104CD0000E2000228DF80C3003230092012103AA3C
:104CE0008DF80D3001F0C9FA05B05DF804FB00BF86
:104CF000700D00201800002030B5124B8BB01B78CF
:104D0000602B1CD1E0238DF80830092300248DF896
:104D10000A30E5B2EB1CAA42DBB206D90D5D28339E
:104D20006B4403F8205C0134F3E7D31C0022DBB2B0
:104D30000092012102AA8DF8093001F09EFA0BB011
:104D400030BD00BF640D002010B590F88331A4B0D1
:104D5000CBB1E0238DF80C30F1238DF80E30032316
:104D6000DA1ED2B28A5C3AB103F190046C4401338A
:104D700004F8842CDBB2F3E7012103AA00918DF83B
:104D80000D3001F07AFA24B010BD00002DE9F04F8B
:104D90000C2A8346914608468DB003D804200DB0F6
:104DA000BDE8F08F0B780693C3F300138BF88331C3
:104DB0004F788E7807F00803089307F010030993E3
:104DC00007F020030A93322E07F0400307F0020891
:104DD00007F004050B93E1D8CC78052C40F28380D2
:104DE000072C00F0A280062C00F09C80A4F15C034C
:104DF000DBB2092BD2D840F2D13222FA03F313F0FE
:104E0000010FCBD083790F2B0793C7D84379B9F122
:104E10000F0F8CBF90F80FC04FF0800C944AB9F17F
:104E2000110F8CBF90F811E04FF0800E9B08B9F184
:104E3000150F417A90F80CA01370827AC37A98BF4C
:104E40008020DDF8189088BF407DC9F3C009CDE906
:104E500001C0CDF800A0CDE903E98648FBF7A6FD27
:104E6000B8F1000818BF4FF00108003D18BF012538
:104E7000814BDFF808A21D70089B07F00107003B7B
:104E800018BF01238AF800707D4F7E4A87F80080A2
:104E9000DFF8F481A4F15C0588F80030099BEDB2DD
:104EA000003B18BF012313700B9B784A003B18BFCF
:104EB000012313700A9B764A003B18BF0123082D7B
:104EC00013707449744B33D9652C5CD10120107078
:104ED00006221A709BF884310C70002B3FD0654875
:104EE000FBF7A2FD3BE0012C02D117F0010F88E790
:104EF000022C03D1B8F1000F84D14FE7032C03D16A
:104F0000002D7FF47FAF49E7042C05D107F008039B
:104F1000002B7FF477AF41E7052C7FF473AF07F0E8
:104F20001003F5E707F02003F2E707F04003EFE78F
:104F300040F25112EA40D20725D501223A700222EE
:104F40001A709BF884310C7013B14A48FBF76CFD62
:104F5000602C04D1012202214648FBF7DDFA9DF9BD
:104F600018304E4AD943002B4FEAD17111700FDB34
:104F7000484B1B7863B9632C0AD049484949FFF76D
:104F8000E3FE06200BE700221C70424B1A70E6E796
:104F900031464548FDF74AFD3146444801F090FB53
:104FA00031464348FFF770F931464248FEF7DEFECE
:104FB00031464148FEF72AFC31464048FFF7C2F926
:104FC00031463F48FCF75EFE07993E48FCF71EFC61
:104FD00049462848FEF73AF89BF8843133B1092D49
:104FE00004D840F25133EB40DB0707D49AF8003085
:104FF000BBB1012211461F48FBF78EFA1D48FDF791
:10500000A7FF1C48FBF73CFF092D2ED840F251307A
:10501000E840C04310F0010027D101238BF8843110
:10502000BDE63B7813B101220221E4E7124B1B7865
:1050300013B101220321DEE798F8003013B10122F9
:105040000421D8E70F4B1B7813B101220521D2E7C9
:105050000E4B1B7813B101220721CCE70C4B1B78B8
:10506000002BCBD001220621C5E7002097E600BF28
:1050700015000020040800201C000020170000205C
:1050800016000020190000201A000020180000203F
:105090001B000020640D0020700D0020680D002012
:1050A0000C110020EFD400089007002030130020DE
:1050B000180F0020C80D00209C0800202C10002094
:1050C000C80300204003002038B54B1E0C46062BB9
:1050D0007FD8DFE803F00C043843517662003F4983
:1050E0003F48FFF731FE3F48FCF78EFE06E03C48A4
:1050F0003D49FFF729FE3D48FCF732FA3C4801F0F4
:105100005DF93C48FEF75EFE3B48FEF7A2FC3B48DB
:10511000FEF79CF93A48FCF7D9F83A4D2C7064B187
:10512000394B1B78A34208D038492D48FFF70CFEB5
:10513000012221463648FBF7EFF929783448BDE8CB
:105140003840FDF7CDBD33492548FFF7FDFD274821
:10515000FCF706FA2348FCF757FED2E72E49204811
:10516000FFF7F2FD2148FCF7FBF91E48FCF74CFE67
:105170001F4801F023F9C7E728491948FFF7E4FD64
:105180001A48FCF7EDF91748FCF73EFE184801F005
:1051900015F91848FEF716FEB9E721491048FFF740
:1051A000D3FD1248FCF7DCF90E48FCF72DFE104841
:1051B00001F004F90F48FEF705FE0F48FEF749FC21
:1051C000A8E718490648FFF7BFFD0848FCF7C8F9EB
:1051D00089E715490248FFF7B7FD9EE71CD500088F
:1051E0000C110020300400202CD5000840030020C2
:1051F00098120020200E0020780D00205C0800206E
:105200000C020020700D0020710D0020AED50008AA
:10521000040800203FD5000859D5000869D50008CA
:105220007AD500088AD500089DD5000810B5044637
:10523000CAB12E4B09781B788B4222D0052914D98C
:10524000072934D0062934D0632914D0A1F15C0396
:10525000DBB2082B05D840F2511222FA03F3DB0728
:1052600029D4652934D004211BE001290BD1204B1E
:105270001B78002BF7D000221E4B1A702046FFF738
:1052800023FF00210DE0022901D11B4BF0E7032988
:1052900001D11A4BECE7042905D1194B1B78002BDF
:1052A000E9D1084610BD0529E5D1164BE0E7164BBC
:1052B000DEE7164BDCE701220F4B1A700D4B19701D
:1052C00090F8843113B11248FBF7AEFB0221D5E709
:1052D00001220E4B1A70074B197094F8843113B1E8
:1052E0000B48FBF7A1FB0621C8E700BF700D0020AB
:1052F00017000020640D0020160000201C00002074
:105300001A00002019000020180000201B000020B7
:105310000408002070B590F883310546A4B053B35B
:10532000E0238DF80C3000238DF80D30F123032499
:105330008DF80E30E31EDBB2CE5C04F19000631CEE
:10534000DBB268441EB11C4600F8846CF2E72021F1
:1053500000F8841C03A8C3F18201184401F00AF884
:10536000012104F10A03DBB22846009103AA8DF85B
:105370000D3000F082FF24B070BD70B590F883311D
:10538000A4B033B3E0238DF80C30F2238DF80E3047
:105390000323DC1EE4B20E5D03F190055C1CE4B255
:1053A0006D441EB1234605F8846CF2E7C2F3072171
:1053B00005F8841C04F190010DEB01040121023376
:1053C00004F8842CDBB2009103AA8DF80D3000F0B4
:1053D00054FF24B070BD0000F7B50446B74EB84D79
:1053E0000121204600F032FF0746002800F06782C6
:1053F0000121204600F037FF94F8003143B9E0283E
:1054000003D10122207084F8002184F80131E7E7FC
:10541000012B06D10223607084F8010184F8003169
:10542000DEE7E05494F801210133DBB2934284F8C3
:105430000031D5D1A178312928D9502900F29080A6
:10544000442904D8402900F0B9810121CBE0453935
:105450000B29FAD801A353F821F000BFED5700083B
:105460001F5800084B5400084B54000849580008C6
:105470004B5400084B5400084B5400084B54000890
:105480004B5400084B540008735800083129DCD8ED
:1054900001A353F821F000BF815500087955000899
:1054A00089550008A1550008AF5500084B54000865
:1054B0004B5400084B540008BD5500084B540008DD
:1054C0000D5600084B5400084B5400084B5400087C
:1054D0004B5400084B5400083F5600087356000810
:1054E0004B5400089B5600084B5400084B540008CE
:1054F0004B5400084B540008715500084B540008E9
:10550000FD5600084B5400087155000871550008FD
:10551000715500084B5400082F5700084B540008E1
:105520004B5400084B5400084B5400084B540008DF
:105530004B5400084B5400084B5400084B540008CF
:105540004B5400084B5400084B5400084B540008BF
:105550004B5400084B54000861570008935700084B
:10556000802900F0A2817031C9B201293FF66DAFE8
:10557000002384F8003148E72046FEF7BBFFF7E739
:105580002046FFF7A7F8F3E7033A2046D2B2E11C22
:10559000FFF7FCFB014630BB2046FEF77DFFE7E747
:1055A000033A2046D2B2E11CFFF740FEF2E7033A8D
:1055B0002046D2B2E11CFFF7BFF8EBE7414B1B7866
:1055C000622B01D05C2B12D1033A3F48D2B2E11CCE
:1055D000FBF746FF07460028DED03C493AB23C487C
:1055E000FFF7CBFE39462046FEF76CFFC0E7652B80
:1055F00006D1033AD2B2E11C3648FEF7B7FEE9E71E
:1056000003F0FB03602BC7D00227E6E72B78A3B992
:105610000122314B612131481A70FAF77DFF94F86D
:1056200001212F48033AD2B2E11CFBF7DFFD074608
:1056300000289DD02B493AB2D1E70527FAE72A4B3B
:105640001B7893B12B78012B0FD8033A2748D2B29D
:10565000E11CFCF7C1FF074640B92B78002B87D12E
:1056600001212046FFF730FD82E7022720493AB2A8
:10567000B5E71D4B1B7873B12B78012B0BD8033A80
:105680001A48D2B2E11CFCF7CDFF07460028E4D04F
:1056900018493AB2A3E70227FAE7134B1B785BB12C
:1056A0002B78012B08D81148FCF7E2FF07460028A9
:1056B000D3D011493AB292E70227FAE71900002045
:1056C000700D0020640D0020D0010020CCD5000812
:1056D0000C1100202C100020660D00200408002072
:1056E0000C020020EED500081700002090070020D3
:1056F00001D6000820D600083DD600088F4B1B7845
:105700008BB12B7813F0FD0F0DD1033A8C48D2B238
:10571000E11CFCF7FBF9074630B92B78002B7FF42E
:1057200027AF02219DE7022786493AB257E7864B09
:105730001B788BB12B780BB1032B0DD1033A834827
:10574000D2B2E11C00F035FF074630B92B78002BB0
:105750007FF40EAF032184E702277D493AB23EE78A
:105760007C4B1B788BB12B7813F0FB0F0DD1033AD8
:105770007948D2B2E11CFEF7EFFC074630B92B782E
:10578000002B7FF4F5AE04216BE7022773493AB290
:1057900025E7704B1B787BB12B7813F0FB0F0BD1F7
:1057A000033A6D48D2B2E11CFEF7D6FC074600284A
:1057B000E5D06B493AB212E70227FAE733788BB1AA
:1057C0002B780BB1052B0DD1033A6648D2B2E11C00
:1057D000FEF72CFA074630B92B78002B7FF4C8AEC1
:1057E00005213EE7022760493AB2F8E65F4B1B7895
:1057F0008BB12B780BB1072B0DD1033A5C48D2B299
:10580000E11CFDF76CFF074630B92B78002B7FF4C5
:10581000AFAE072125E7022756493AB2DFE6534BE0
:105820001B787BB12B780BB1072B0BD1033A504877
:10583000D2B2E11CFDF753FF07460028E5D04E49E0
:105840003AB2CCE60227FAE7484B1B787BB12B78BB
:105850000BB1072B0BD1033A4548D2B2E11CFDF73F
:105860003EFF07460028D0D044493AB2B7E60227A7
:10587000FAE7434B1B78A3B12B780BB1062B10D161
:105880000121404B033A19703F48D2B2E11CFEF7A8
:1058900029FD074630B92B78002B7FF469AE06212D
:1058A000DFE6022739493AB299E60022033B00922B
:1058B000032120469BB2E21C00F0DFFC58E634488E
:1058C000FDF7CAFB4BF67F330026984284BF84F86D
:1058D000007184F801712F4F0321204600F0B6FCBF
:1058E00048B394F8825103216B1C204684F882311E
:1058F00000F0B9FC254485F8020194F88221022ABF
:10590000EAD9A31893F8FF10FF2911D193F80011D9
:10591000FF290DD193F80131FF2B09D1032A04D0BF
:10592000384604F58171FEF732FF84F88261D3E7CF
:10593000802AD1D1F9E703B0F0BD00BF16000020E6
:10594000C803002059D600081C0000203013002096
:1059500073D600081A000020180F002097D6000800
:10596000B3D60008C80D0020CCD6000818000020CF
:105970009C080020E7D600080CD700082DD70008A7
:105980001B000020720D00202C10002046D70008BC
:10599000040800200C110020F0B51E4690F8833159
:1059A000A5B0002B38D0E0238DF80C30F32303246E
:1059B0008DF80E30E31EDBB2CF5C651C04F1900362
:1059C000EDB26B441FB12C4603F8847CF2E7C2F3BE
:1059D000072103F8841C012105F190030DEB030559
:1059E00005F8842CA21CD2B202F190030DEB030245
:1059F000C6F3072302F8843C221D0334E4B2D3B279
:105A000004F190020DEB020404F8846C03AA0091E7
:105A10008DF80D3000F031FC25B0F0BDF0B590F8F8
:105A20008341A5B0BDF9A860002C47D0E0248DF8D3
:105A30000C40F4248DF80E400324E51EEDB211F85D
:105A400005C004F19007651CEDB26F44BCF1000F76
:105A500003D02C4607F884CCEFE7C2F3072107F800
:105A6000841C05F190010DEB010505F8842CA21CA6
:105A7000D2B29032C3F307216A4402F8841C012198
:105A8000E21CD2B290326A4402F8843C231DDBB29D
:105A900090336B44C6F3072203F8842CA31D05340E
:105AA000E4B204F190020DEB020404F8846CDBB262
:105AB000009103AA8DF80D3000F0DFFB25B0F0BD9A
:105AC000F0B590F88341A5B0BDF9A870BDF9AC6000
:105AD000002C56D0E0248DF80C40F5248DF80E40B3
